:020000040800F2
:10000000A0070020E12C0008152E0008172E00087C
:100010001B2E00081F2E0008232E000800000000E1
:10002000000000000000000000000000272E000873
:10003000292E0008000000002B2E00082D2E00089D
:10004000FB2C0008FB2C0008FB2C0008FB2C0008F4
:10005000FB2C0008FB2C0008FB2C0008FB2C0008E4
:10006000FB2C0008FB2C0008FB2C0008FB2C0008D4
:10007000FB2C0008FB2C0008FB2C0008FB2C0008C4
:10008000FB2C0008FB2C0008FB2C0008FB2C0008B4
:1000900031330008FB2C0008FB2C0008FB2C000867
:1000A000FB2C0008FB2C0008FB2C0008FB2C000894
:1000B000FB2C000895310008FB2C0008FB2C0008E5
:1000C000FB2C0008FB2C0008FB2C0008FB2C000874
:1000D000FB2C000859300008FB2C0008FB2C000802
:1000E000FB2C0008FB2C0008FB2C000800F002F899
:1000F00000F03CF80AA090E8000C82448344AAF186
:100100000107DA4501D100F031F8AFF2090EBAE883
:100110000F0013F0010F18BFFB1A43F0010318473B
:100120002437000044370000103A24BF78C878C153
:10013000FAD8520724BF30C830C144BF04680C60ED
:10014000704700000023002400250026103A28BF35
:1001500078C1FBD8520728BF30C148BF0B60704739
:100160001FB503F048FB1FBD10B510BD03F007FB22
:100170001146FFF7F5FF02F0D3FD03F025FB03B4B2
:10018000FFF7F2FF03BC03F02FFB0000002100206B
:10019000674A126842F48032654B1A6000BF644AB5
:1001A000126802F40030491C10B9B1F5A06FF6D105
:1001B0005F4A126812F4003F01D0012000E00020E5
:1001C000012842D15B4A126842F01002594B1A6072
:1001D0001A46126822F003021A601A46126842F0A8
:1001E00002021A60524A5268514B5A601A465268CB
:1001F0005A601A46526842F480625A601A4652683F
:1002000022F47C125A601A46526842F4E8125A608C
:100210001A46126842F080721A6000BF444A12689F
:1002200012F0007FFAD0424A526822F00302404B9B
:100230005A601A46526842F002025A6000BF3C4AB5
:10024000526802F00C02082AF9D1704710B5FFF786
:100250009DFF10BD10B53648006840F001003449DC
:1002600008600846406834490840314948600846FB
:100270000068324908402E4908600846006820F4AA
:10028000802008600846406820F4FE0048604FF473
:100290001F008860FFF7DAFF4FF000602849086010
:1002A00010BD10B5002100200022214B5B6803F037
:1002B0000C0121B1042906D0082928D107E0214BDF
:1002C000214C236027E01F4B1F4C236023E0184B79
:1002D0005B6803F47010164B5B6803F480320223F2
:1002E00003EB904022B9194B4343174C23600DE0B8
:1002F0000F4B5B6813F4003F04D0144B4343124C84
:10030000236003E00F4B43430F4C236003E00D4B8E
:100310000D4C236000BF00BF054B5B68C3F30313A4
:100320000B4CE15C084B1B68CB40074C236010BDB5
:1003300000100240002002400000FFF8FFFFF6FE20
:1003400008ED00E000127A000000002000093D00E6
:100350000400002036490143364A1160704770B5E9
:10036000002100230F22C4784CB3324C246804F4DB
:10037000E064C4F5E0644FEA1421C1F1040322FAF9
:1003800001F2447804FA03F1847804EA020444EAAE
:1003900001014FEA0111284C0678A155047804F0B8
:1003A0001F054FF0010404FA05F405784FEA6515BE
:1003B0004FF0E02606EB8505C5F8004109E004781A
:1003C00004F01F050124AC401C4D0678761145F859
:1003D000264070BD1A4A0A4002431A4B1A60704701
:1003E00041B1194A126842EA00024FF0E023C3F813
:1003F000102D07E0144A126822EA00024FF0E023B1
:10040000C3F8102D7047042808D14FF0E021096986
:1004100041F004014FF0E022116107E04FF0E021CC
:10042000096921F004014FF0E022116170470000DA
:100430000000FA050CED00E000E400E080E100E0DF
:1004400080FFFF1F08ED00E010ED00E010B504464E
:10045000CA48844208D10121042000F024FB002175
:10046000042000F020FB46E0C548844208D1012169
:10047000082000F018FB0021082000F014FB3AE0EF
:10048000C048844208D10121102000F00CFB00215B
:10049000102000F008FB2EE0BB48844208D1012167
:1004A000202000F000FB0021202000F0FCFA22E0D8
:1004B000B648844208D10121402000F0F4FA00211E
:1004C000402000F0F0FA16E0B148844208D1012142
:1004D000802000F0E8FA0021802000F0E4FA0AE031
:1004E000AC48844207D10121801500F0DCFA0021DC
:1004F000A01500F0D8FA10BD10B50121084600F093
:10050000D2FA0021012000F0CEFA10BD2DE9F04111
:10051000024600250026002000230024002791F831
:1005200003C00CF00F0591F803C01CF0100F03D0AE
:1005300091F802C04CEA0505B1F800C01CF0FF0FAD
:1005400031D0146800202BE04FF0010C0CFA00F3BE
:10055000B1F800C00CEA03069E4220D183004FF0A0
:100560000F0C0CFA03F7BC4305FA03FC4CEA040435
:1005700091F803C0BCF1280F06D14FF0010C0CFA22
:1005800000FCC2F814C00AE091F803C0BCF1480FA7
:1005900005D14FF0010C0CFA00FCC2F810C0401C51
:1005A0000828D1D31460B1F800C0BCF1FF0F34DDCE
:1005B000546800202EE000F1080C4FF0010808FA02
:1005C0000CF3B1F800C00CEA03069E4221D183006F
:1005D0004FF00F0C0CFA03F7BC4305FA03FC4CEA8E
:1005E000040491F803C0BCF1280F05D100F1080CF8
:1005F00008FA0CF8C2F8148091F803C0BCF1480F57
:1006000007D100F1080C4FF0010808FA0CF8C2F805
:100610001080401C0828CED35460BDE8F0814FF60E
:10062000FF710180022181700421C1707047024670
:10063000002093680B4201D0012000E000207047A9
:100640000146886880B2704702460020D3680B429A
:1006500001D0012000E0002070470146C86880B248
:10066000704701617047416170470AB1016100E064
:1006700041617047C16070474FF480320A43826124
:100680008161826182698269704702460020424B23
:1006900018684FF68073184040EA021008433E4B3A
:1006A000186070473D49C8617047F0B50A4600239D
:1006B00000240021002500F00046B6F1004F02D1D1
:1006C000354EF16901E0344E7168C0F3034583B2E1
:1006D00000F44016B6F5401F08D121F070612E4E8F
:1006E000766826F070662C4F7E6012E000F480166B
:1006F000B6F5801F06D1032606FA05F4A14341F0A2
:10070000706106E0460D360103FA06F6B14341F08A
:10071000706122B1460D360103FA06F6314300F04E
:100720000046B6F1004F02D11B4EF16101E01A4EB6
:100730007160F0BD30B500228B071C0F0F2303FA48
:1007400004F2154B08338C1053F824309343124CA9
:1007500008348D1044F8253023468C1053F824308B
:100760008C07240F00FA04F423430B4C08348D103B
:1007700044F8253030BD0A49086070470008014040
:10078000000C01400010014000140140001801401D
:10079000001C0140002001400000014000002042F8
:1007A000DC002042DB48006840F00100D9490860C5
:1007B00008464068D8490840D6494860084600685D
:1007C000D6490840D34908600846006820F48020D4
:1007D00008600846406820F4FE0048604FF41F009F
:1007E00088607047CB49096821F48031C94A11609B
:1007F0001146096821F480211160B0F5803F03D0D3
:10080000B0F5802F0ED106E0C249096841F480316D
:10081000C04A116007E0BF49096841F4A021BD4A00
:10082000116000E000BF00BF704710B50146002214
:10083000002300204A11012A02D1B64C236806E0A9
:10084000022A02D1B34C236A01E0B24C636A01F080
:100850001F02012494401C4201D0012000E000202E
:1008600010BD70B500240025002600BF3120FFF721
:10087000DCFF0646641CB4F5A06F01D0002EF5D055
:100880003120FFF7D2FF08B1012500E000252846FE
:1008900070BD014600209F4A106820F0F80040EA31
:1008A000C100106070479E490860704702460020F2
:1008B000984B586820F47C1042EA01031843954B8A
:1008C0005860704796490866704701460020914A73
:1008D000506820F003000843506070478D4840681E
:1008E00000F00C007047014600208A4A506820F052
:1008F000F00008435060704701460020854A506868
:1009000020F4E06008435060704701460020814AAF
:10091000506820F4605040EAC1005060704729B12F
:100920007C4A527A02437B4B5A7206E0794A527AE9
:10093000C343DBB21A40774B5A727047794908605B
:10094000704701460020734A506820F44040084335
:10095000506070470021744A11706E4A82F820106E
:10096000012802D0042808D103E001216E4A117049
:1009700004E005216C4A117000E000BF00BF704721
:100980006A49086070476349096A0143614A116214
:10099000704767490860704730B500210022002485
:1009A00000235C4D6D6805F00C0121B1042905D0D0
:1009B000082923D105E05F4D056022E05D4D05600B
:1009C0001FE0544D6D6805F47012524D6D6805F4CA
:1009D0008034022505EB92421CB9574D5543056002
:1009E0000BE04C4D6D6815F4003F03D0524D55435C
:1009F000056002E04F4D5543056002E04D4D056036
:100A000000BF00BF434D6D6805F0F00109094B4D73
:100A10006B5C0568DD4045603E4D6D6805F4E06146
:100A2000090A464D6B5C4568DD408560394D6D684F
:100A300005F46051C90A414D6B5C4568DD40C560F5
:100A4000344D6D6805F44041890B3D4D6B5CC568C4
:100A5000B5FBF3F5056130BD29B12E4A5269024359
:100A60002C4B5A6104E02B4A52698243294B5A614C
:100A7000704729B1274A92690243264B9A6104E0E4
:100A8000244A92698243234B9A61704729B1214AD3
:100A9000D26902431F4BDA6104E01E4AD2698243E5
:100AA0001C4BDA61704729B11A4AD2680243194BCC
:100AB000DA6004E0174AD2688243164BDA60704766
:100AC00029B1144A12690243124B1A6104E0114A17
:100AD000126982430F4B1A6170471A4908607047C8
:100AE0000F49C86470470B49C87170470948406A8C
:100AF00040F0807007494862704701460020054A6F
:100B000092680A4201D0012000E0002070470149AC
:100B100088727047001002400000FFF8FFFFF6FEE9
:100B200000004242D800424220100240800442426B
:100B30003C04424200127A0000093D0014000020EB
:100B4000240000204004424210B50446FC48844280
:100B500009D101218803FFF7A6FF00214FF480404F
:100B6000FFF7A1FF32E0F748844209D10121480490
:100B7000FFF7A6FF00214FF40030FFF7A1FF25E0AB
:100B8000F148844209D101218804FFF799FF00212F
:100B90004FF48020FFF794FF18E0EC48844209D11D
:100BA0000121C804FFF78CFF00214FF40020FFF75C
:100BB00087FF0BE0E648844208D101210805FFF7D2
:100BC0007FFF00214FF48010FFF77AFF10BD2DE961
:100BD000F04786B005460E460024A24600BFA14657
:100BE0000027B08900B100BF2F462C8A4CF6FF7059
:100BF0000440F08804432C82AC894EF6F310044084
:100C0000B08831890843718908430443AC81AC8AB8
:100C10004FF6FF400440B0890443AC8201A8FFF7BF
:100C2000BBFEC748874202D1DDF810A001E0DDF825
:100C30000CA0A88910F4004F08D00AEBCA0000EB02
:100C40000A1031684900B0FBF1F807E00AEBCA006E
:100C500000EB0A1031688900B0FBF1F86420B8FBA2
:100C6000F0F004012009642101FB1089A88910F427
:100C7000004F08D0322000EBC900B0FBF1F000F0CB
:100C80000700044308E0322000EB09106421B0FBA8
:100C9000F1F000F00F0004432C8106B0BDE8F087AE
:100CA0004FF41651016000218180C18001810C2127
:100CB000418100218181704710B502460020108AD1
:100CC0004FF2FF0318400B884C8823438C88234342
:100CD000CC8823431843108210BD0021018041803D
:100CE0008180C180704721B1828942F400528281A3
:100CF00004E082894DF6FF731A4082817047F0B597
:100D000003460024002600250020A1F510676A3F55
:100D100000D100BF1846C1F3421401F01F0601279D
:100D200007FA06F5012C01D10C3004E0022C01D1A8
:100D3000103000E014301AB107682F43076002E05A
:100D40000768AF430760F0BD10B51AB1838A0B4343
:100D5000838204E0838ACC43A4B22340838210BD03
:100D6000028A4FF6F0731A400282028A0A43028214
:100D7000704782894FF2FF731A40828182890A4349
:100D80008281704721B1828942F00202828104E0AF
:100D900082894FF6FD731A4082817047028A4FF6AE
:100DA000DF731A400282028A0A430282704721B12D
:100DB000028A42F48042028204E0028A4BF6FF7308
:100DC0001A4002827047C1F30802828070470146D0
:100DD0008888C0F308007047818941F00101818152
:100DE0007047028BD2B20283028B42EA0122028355
:100DF0007047028B02F47F420283028B0A43028314
:100E0000704721B1828A42F02002828204E0828A05
:100E10004FF6DF731A408282704721B1828A42F016
:100E20001002828204E0828A4FF6EF731A408282B7
:100E3000704721B1828A42F00802828204E0828AED
:100E40004FF6F7731A408282704721B1828942F4CB
:100E50000042828103E08289C2F30E0282817047E0
:100E600021B1828A42F40062828204E0828A4FF2D7
:100E7000FF731A4082827047828A4FF6FB731A40D2
:100E80008282828A0A438282704721B1828A42F03A
:100E90000202828204E0828A4FF6FD731A40828247
:100EA000704702460020B1F5007F00D100BF1388D3
:100EB0000B4201D0012000E00020704701F40072D5
:100EC000B2F5007F00D100BFCA430280704770B501
:100ED00002460024002300250020A1F510666A3E8A
:100EE00000D100BFC1F3421501F01F03012606FA2D
:100EF00003F3012D02D19689334006E0022D02D181
:100F0000168A334001E0968A33400C12012606FA15
:100F100004F41688344013B10CB1012000E0002025
:100F200070BD10B500220023A1F510646A3C00D109
:100F300000BF0A1201249440A3B2DC43048010BD18
:100F4000003801400044004000480040004C004090
:100F50000050004001460020FF4A106800F03800B1
:100F6000084310607047FC49096821F00801FA4AFB
:100F7000116011460968014311607047F64909681C
:100F800021F01001F44A1160114609680143116013
:100F90007047F248F0494860F14848607047EF48B0
:100FA000ED494860EE4848607047EB48006940F002
:100FB0008000E94908617047E748006940F0800017
:100FC000E549086170470420E349C96801F001015F
:100FD000012901D101200EE0DF49C96811F0040F99
:100FE00001D0022007E0DC49C96811F0100F01D0E0
:100FF000032000E00420704700B502460423FFF7F9
:10100000E2FF034603E0FFF7DEFF0346521E012B1B
:1010100001D1002AF7D102B90523184600BD30B529
:10102000044604254FF43020FFF7E6FF0546042D63
:1010300017D1C948006940F00200C7490861084655
:101040004461006940F0400008614FF43020FFF730
:10105000D3FF0546C048006941F6FD710840BE490E
:101060000861284630BD10B504244FF43020FFF746
:10107000C3FF0446042C16D1B748006940F00400B1
:10108000B54908610846006940F0400008614FF426
:101090003020FFF7B1FF0446AF48006941F6FB710D
:1010A0000840AD490861204610BD00B50246042342
:1010B000FFF789FF034603E0FFF785FF0346521E53
:1010C000012B01D1002AF7D102B90523184600BD32
:1010D00010B504244FF43020FFF7E7FF0446042C3A
:1010E00016D19D48006940F004009B4908610846FC
:1010F000006940F0400008614FF43020FFF7D5FF51
:1011000004469548006941F6FB7108409249086120
:10111000204610BD00209049C96911F0020F01D08E
:10112000012000E00020704730B5A5250424FFF71A
:10113000F1FF00B100254FF43020FFF75DFF0446BA
:10114000042C3BD1854884498860854888600846DE
:10115000006940F0200008610846006940F0400046
:1011600008614FF43020FFF747FF0446042C1CD1E0
:101170007948006941F6DF710840774908610846FF
:10118000006940F010000861764805804FF4005077
:10119000FFF732FF0446052C10D06F48006941F676
:1011A000EF7108406C49086108E0052C06D06A48D8
:1011B000006941F6EF71084067490861204630BD7B
:1011C000F0B504460D4604260027F002FFF714FF91
:1011D0000646042E22D16048006940F001005E49B5
:1011E00008612580F002FFF707FF0646042E0ED1A6
:1011F000A71C280C3880F002FFF7FEFE0646564872
:10120000006941F6FE7108405349086106E0524802
:10121000006941F6FE7108404F4908613046F0BD53
:1012200070B504460D460426F002FFF7E5FE0646BB
:10123000042E11D14848006940F001004649086178
:101240002580F002FFF7D8FE06464348006941F6C4
:10125000FE71084040490861304670BD70B50546D2
:101260000E460424E002FFF7C7FE0446042C17D103
:101270003A48394988603A4888600846006940F031
:10128000100008612E80E002FFF7B6FE0446052C30
:1012900006D03148006941F6EF7108402E490861D7
:1012A000204670BD2DE9F04304464FF6FF763746E1
:1012B000B046B1460425E443E6B2C4F30727C4F3BD
:1012C00007484FEA1469E802FFF796FE0546042D29
:1012D0003ED122482049886021488860084600693C
:1012E00040F010000861FF2E06D01F4806804FF422
:1012F0000050FFF781FE0546042D08D1FF2F06D0D0
:101300001A4807804FF40050FFF776FE0546042D7B
:1013100009D1B8F1FF0F06D01548A0F80C88E802F3
:10132000FFF76AFE0546042D09D1B9F1FF0F06D07B
:101330000F48A0F80E98E802FFF75EFE0546052D5F
:1013400006D00548006941F6EF710840024908617E
:101350002846BDE8F08300000020024023016745D5
:10136000AB89EFCD00F8FF1F08F8FF1F0AF8FF1F39
:1013700000F0FF1F30B5054604244FF43020FFF77E
:101380003BFE0446042C41D15F48604988606048B8
:1013900088600846006940F020000861084600693E
:1013A00040F0400008614FF43020FFF725FE04466E
:1013B000042C22D15548006941F6DF710840534999
:1013C00008610846006940F0100008611DB1002066
:1013D0005049088002E0A5204E4908804FF4302093
:1013E000FFF70AFE0446052C10D04848006941F674
:1013F000EF7108404549086108E0052C06D04348D4
:10140000006941F6DF71084040490861204630BD5F
:10141000F0B505460E46174604243B483B49886014
:101420003B488860E002FFF7E7FD0446042C19D131
:101430003648006940F010003449086147F0F80070
:1014400030432843344908804FF40050FFF7D4FD5F
:101450000446052C06D02D48006941F6EF7108407E
:101460002A4908612046F0BD2848C06980087047B5
:101470002648006A704700202449096811F0200FAF
:1014800001D0012000E00020704729B11F4A1269F5
:1014900002431E4B1A6104E01C4A126982431B4B33
:1014A0001A61704701460020012908D1174AD26904
:1014B00012F0010F01D0012008E0002006E0134ADD
:1014C000D2680A4201D0012000E0002070470F4995
:1014D000C860704704200D49C96801F00101012965
:1014E00001D101200EE00949C96811F0040F01D0B3
:1014F000022007E00549C96811F0100F01D0032050
:1015000000E00420704700002301674500200240EE
:10151000AB89EFCD00F8FF1F02F8FF1F10B504469E
:10152000FF48844209D101214806FFF7C9FA00218A
:101530004FF00070FFF7C4FA08E001218806FFF7BA
:10154000BFFA00214FF08060FFF7BAFA10BD30B546
:10155000024600200023146824F00204146014687A
:1015600044F00104146000E05B1C546804F00104C2
:10157000012C03D0A3F57F44FF3CF5D1546804F05F
:101580000104012C01D000206EE08C79012C04D1E3
:10159000146844F08004146003E0146824F08004AC
:1015A0001460CC79012C04D1146844F04004146018
:1015B00003E0146824F0400414600C7A012C04D178
:1015C000146844F02004146003E0146824F020043C
:1015D00014604C7A012C04D1146844F01004146097
:1015E00003E0146824F0100414608C7A012C04D1F8
:1015F000146844F00804146003E0146824F008043C
:101600001460CC7A012C04D1146844F004041460F2
:1016100003E0146824F0040414608C78A407CD78E7
:1016200044EA05640D7944EA05444D7944EA0554D9
:101630000D886D1E2C43D461146824F001041460DD
:10164000002300E05B1C546804F00104012C03D16A
:10165000A3F57F44FF3CF5D1546804F00104012C4C
:1016600001D1002000E0012030BD10B50021837AB7
:10167000012202FA03F1AB4A126842F00102AA4BBE
:10168000C3F800261A46D2F81C2622EA0102A74B0C
:101690001A60027BB2B9A64A126822EA0102A44B80
:1016A0001A604288C38842EA0343A24A847A42F815
:1016B00034300288838842EA03439E4A847A02EBEC
:1016C000C4025360027B012A16D1994A126842EA89
:1016D0000102974B1A604288038842EA0343954A05
:1016E000847A42F83430C288838842EA0343914ABC
:1016F000847A02EBC4025360C27A3AB98E4A126805
:1017000022EA0102884BC3F8042606E08A4A1268DE
:1017100042EA0102844BC3F80426028932B9874A9F
:10172000126822EA0102804BC3F814260289012ABA
:1017300006D1824A126842EA01027B4BC3F81426A2
:10174000427B012A06D1794A126842EA0102764BAD
:10175000C3F81C26734A126822F00102724BC3F8C8
:10176000002610BD00218171C17101724172817228
:10177000C1728170C1700321017102214171012187
:10178000018070476749096841F00101664AC2F863
:1017900000166449096843F60E7221EA0201624AA2
:1017A000C2F800161146D1F8001641EA0021C2F82D
:1017B00000161146D1F8001621F00101C2F80016FA
:1017C000704721B1026842F48032026003E002688F
:1017D00022F4803202607047E1B1026842F0800278
:1017E00002604FF4C272125842F480734FF4C27216
:1017F00013504FF4CA72125842F480734FF4CA72F5
:1018000013504FF4D272125842F480734FF4D272D4
:1018100013501BE0026822F0800202604FF4C27293
:10182000125822F480734FF4C27213504FF4CA72EC
:10183000125822F480734FF4CA7213504FF4D272CC
:10184000125822F480734FF4D2721350704710B5BF
:1018500002460020936803F08063B3F1806F00D1EB
:1018600010E0936803F00063B3F1006F01D1012031
:1018700008E0936803F08053B3F1805F01D1022048
:1018800000E0042004287ED002F5C07303EB0013AF
:101890001B6803F0010402F5C07303EB00131C6026
:1018A0000B7A7BB94B7A0C6843EA445302F5C07457
:1018B00004EB00142468234302F5C07404EB001405
:1018C000236010E00B7A4C6843EAC4034C7A23434C
:1018D00002F5C07404EB00142468234302F5C074BD
:1018E00004EB001423608B7A03F00F038B7202F574
:1018F000C07303EB00135B6823F00F0402F5C073A1
:1019000003EB00135C6002F5C07303EB00135B682C
:101910008C7A234302F5C07404EB001463600FE07B
:101920000064004000660040006000401C6600400B
:101930000C660040406600400466004014660040AB
:101940008B7B1C064B7B44EA03440B7B44EA03235A
:10195000CC7A234302F5C07404EB0014A3608B7CA3
:101960001C064B7C44EA03440B7C44EA0323CC7BF7
:10197000234302F5C07404EB0014E36002F5C07366
:1019800003EB001300E007E01B6843F0010402F5DD
:10199000C07303EB00131C6010BD10B5024600239A
:1019A00021B1012907D002290FD109E09068F84C34
:1019B00000EA04030BE09068F64C00EA040306E03A
:1019C0009068F54C00EA040301E0002300BF00BF6B
:1019D000F24C181BA34216D007DC83B16FF0806075
:1019E00018180ED0022818D111E0B0F5007F10D0E1
:1019F000EB4C001909D0B0F5003F0ED10BE00223EB
:101A00000DE000230BE0002309E0002307E00123A1
:101A100005E0012303E0012301E0002300BF00BF34
:101A2000D8B210BD21B1012907D002290FD109E098
:101A3000826842F0800282600AE0826842F40042DA
:101A4000826005E0826842F40002826000E000BF2C
:101A500000BF704710B500F5D87303EB01131B6886
:101A600003F004031372137A53B900F5D87303EB30
:101A700001131B6840F2FF7404EA5353136009E03A
:101A800000F5D87303EB01131B686FF0604404EAA0
:101A9000D303536000F5D87303EB01131B6803F005
:101AA0000203537200F5D87303EB01135B6803F074
:101AB0000F03937200F5D87303EB01135B681B0AE5
:101AC000D37400F5D87303EB01139B68D37200F550
:101AD000D87303EB01139B681B0A137300F5D873CB
:101AE00003EB01139B681B0C537300F5D87303EBD6
:101AF00001139B681B0E937300F5D87303EB01135E
:101B0000DB68D37300F5D87303EB0113DB681B0AA2
:101B1000137400F5D87303EB0113DB681B0C5374CB
:101B200000F5D87303EB0113DB681B0E937421B926
:101B3000C36843F02003C36003E0036943F020035C
:101B4000036110BD21B9C26842F02002C26003E007
:101B5000026942F02002026170470246002019B972
:101B6000D36803F0030006E0012903D1136903F0F1
:101B7000030000E00020704710B502460B4600202D
:101B80004FF6FF71BBB9146824F0020444F001045D
:101B9000146000E0491E546804F00304012C01D0D5
:101BA0000029F7D1546804F00304012C01D000206F
:101BB00032E0012030E0012B13D1146824F003043B
:101BC000146000E0491E546814F0030F01D000298E
:101BD000F8D1546814F0030F01D000201CE001205C
:101BE0001AE0022B17D1146824F0010444F0020417
:101BF000146000E0491E546804F00304022C01D074
:101C00000029F7D1546804F00304022C01D000200D
:101C100002E0012000E0002010BD014600200A681B
:101C200022F0010242F002020A604A6802F0030256
:101C3000022A00D10120704701464FF6FF720020B2
:101C40000B6823F002030B6000E0521E4B6803F0A8
:101C50000203022B01D1002AF7D14B6803F00203E3
:101C6000022B00D001207047014600208A6902F053
:101C700070007047014600208A69100E70470146C7
:101C800000208A69C2F3074070471AB143690B43C9
:101C9000436102E043698B434361704710B50246DC
:101CA000002011F4700F08D09369C1F3130423428C
:101CB00001D001202DE000202BE011F0807F08D022
:101CC0005368C1F31304234201D0012021E0002016
:101CD0001FE011F0006F08D09368C1F31304234292
:101CE00001D0012015E0002013E011F0007F08D0A2
:101CF000D368C1F31304234201D0012009E000207E
:101D000007E01369C1F31304234201D0012000E06E
:101D1000002010BD0022234B994202D10023836191
:101D200011E0C1F3130211F0007F01D0C2600AE09C
:101D300011F0806F01D0026105E011F0006F01D059
:101D4000826000E042607047024600200A4201D0F3
:101D5000012000E00020704770B504460D460026C3
:101D60006069284271D0B5F5807F68D01CDC082DF1
:101D700041D006DC012D2CD0022D30D0042D7ED197
:101D800033E0102D3DD0202D41D0402D77D144E0BF
:101D90000300000400030008000003100001000815
:101DA0000001FFF77000F030B5F5004F61D009DC9D
:101DB000B5F5007F4AD0B5F5806F4DD0B5F5006F11
:101DC0005DD150E0B5F5803F2DD0B5F5003F56D13F
:101DD0002FE0A0685549FFF7B7FF064651E0E068DD
:101DE0000321FFF7B1FF06464BE0E0680821FFF74B
:101DF000ABFF064645E0E0681021FFF7A5FF064669
:101E00003FE020690321FFF79FFF064639E0206984
:101E10000821FFF799FF064633E020691021FFF7FC
:101E200093FF06462DE060680821FFF78DFF064608
:101E300027E060681021FFF787FF064621E0A069D0
:101E40000121FFF781FF06461BE01BE0A06902218C
:101E5000FFF77AFF064614E0A0690421FFF774FF3C
:101E600006460EE00BE0A0697021FFF76DFF064605
:101E700007E060680421FFF767FF064601E00026DF
:101E800000BF00E00026304670BDB1F5007F3AD0BB
:101E90000FDC202928D006DC01291CD004291DD004
:101EA000082940D11DE0402921D0B1F5807F3AD1E9
:101EB00026E0B1F5004F31D006DCB1F5806F25D0BA
:101EC000B1F5006F2FD124E0B1F5803F12D0B1F50C
:101ED000003F28D111E0154A826025E00822C26047
:101EE00022E01022C2601FE0082202611CE01022E2
:101EF000026119E00822426016E01022426013E0FD
:101F00000422426010E0042242600DE0042242609C
:101F10000AE0002282610422426005E00022826120
:101F20000422426000E000BF00BF704701010100D1
:101F300010B50446FF48844208D10121C014FEF7C1
:101F4000B2FD0021E014FEF7AEFDC4E0B4F1804F15
:101F500008D101210846FEF7B3FD00210120FEF75C
:101F6000AFFDB8E0F448844208D101210220FEF719
:101F7000A7FD00210220FEF7A3FDACE0EF4884425C
:101F800008D101210420FEF79BFD00210420FEF76B
:101F900097FDA0E0EA48844208D101210820FEF71D
:101FA0008FFD00210820FEF78BFD94E0E548844278
:101FB00008D101211020FEF783FD00211020FEF73B
:101FC0007FFD88E0E048844208D101212020FEF70F
:101FD00077FD00212020FEF773FD7CE0DB48844282
:101FE00008D101214014FEF75EFD00216014FEF7C8
:101FF0005AFD70E0D648844209D10121C804FEF799
:1020000052FD00214FF40020FEF74DFD63E0D14862
:10201000844209D101210805FEF745FD00214FF456
:102020008010FEF740FD56E0CB48844209D10121E3
:102030004805FEF738FD00214FF40010FEF733FD90
:1020400049E0C648844208D101214020FEF738FD0E
:1020500000214020FEF734FD3DE0C148844208D114
:1020600001218020FEF72CFD00218020FEF728FDB5
:1020700031E0BC48844208D101218015FEF720FDE3
:102080000021A015FEF71CFD25E0B748844209D1C8
:1020900001210804FEF707FD00214FF48030FEF710
:1020A00002FD18E0B148844209D101214804FEF73D
:1020B000FAFC00214FF40030FEF7F5FC0BE0AC48D1
:1020C000844208D101218804FEF7EDFC00214FF481
:1020D0008020FEF7E8FC10BD00220288954B984254
:1020E0000ED09A4B98420BD0B0F1804F08D0924B53
:1020F000984205D0914B984202D0914B984204D11E
:102100004FF68F731A404B881A438E4B984207D074
:102110008D4B984204D04FF6FF431A40CB881A43A8
:1021200002808B8883850B880385824B98420BD075
:10213000864B984208D08C4B984205D08B4B9842E6
:1021400002D08B4B984201D10B7A03860123838204
:10215000704770B5002400220023058C4FF6FE76F0
:1021600035400584028C8388048B4FF68F752C4094
:10217000B51E2C400D882C43751E2A400D892A431C
:102180004D882A436B4DA8420BD0704DA84208D011
:10219000754DA84205D0754DA84202D0744DA84295
:1021A00013D14FF6F7752A404D892A434FF6FB7538
:1021B0002A408D882A434FF6FF652B404FF6FF5586
:1021C0002B408D892B43CD892B4383800483CD887D
:1021D0008586028470BD70B5002400220023058C22
:1021E0004FF6EF7635400584028C8388048B48F6E1
:1021F000FF752C404FF6FF452C400D882D0644EA14
:1022000015444FF6DF752A400D892D0542EA154227
:102210004D882D0542EA1542464DA84202D04B4D4D
:10222000A8421BD14FF67F752A404D892D0542EA01
:1022300015424FF6BF752A408D882D0542EA15429A
:102240004FF6FF352B404FF2FF752B408D89AD04C3
:1022500043EA1543CD89AD0443EA154383800483E3
:10226000CD880587028470BD70B50024002200234C
:10227000058C4FF6FF6635400584028C8388848B7D
:102280004FF68F752C404FF6FC752C400D882C4373
:102290004FF6FF552A400D892D0642EA15424D881A
:1022A0002D0642EA1542234DA84202D0274DA842EE
:1022B0001BD14FF2FF752A404D892D0642EA154287
:1022C0004FF6FF352A408D882D0642EA15424EF61C
:1022D000FF752B404DF6FF752B408D892D0543EA88
:1022E0001543CD892D0543EA154383808483CD882A
:1022F0008587028470BD70B5002200230024058C00
:102300004EF6FF7635400584038C8488828B48F630
:10231000FF752A404FF6FF452A400D882D0642EAF8
:1023200015424DF6FF752B400D892D0743EA1543E5
:102330004D881FE0002C01400004004000080040D0
:10234000000C004000100040001400400034014028
:10235000004C014000500140005401400018004072
:10236000001C0040002000400040014000440140AB
:10237000004801402D0743EA1543F94DA84202D019
:10238000F84DA84206D14BF6FF752C408D89AD055E
:1023900044EA154484808283CD88A0F840500384A9
:1023A00070BD828B4FF2FF331A408283828B0B0603
:1023B00042EA134282837047F0B50C46154600226C
:1023C00000210026078C4EF6FF7C07EA0C070784E5
:1023D000828B018C27073E0C40F6FF473A402F06C0
:1023E00042EA17421F0742EA1742DD4FB8420ED0B9
:1023F000DC4FB8420BD0B0F1804F08D0DA4FB84272
:1024000005D0DA4FB84202D0D94FB84206D14DF6C6
:10241000FF77394046F48057394305E047F6FF57C8
:10242000394044F48057394382830184F0BD828B64
:102430004FF6F3731A408283828B0A43828370477C
:10244000F0B50C461546002200210026078C4FF6F9
:10245000FF6C07EA0C070784828B018C27063E0C71
:102460004FF60C773A401F0545EA17473A43BC4FF1
:10247000B8420ED0BB4FB8420BD0B0F1804F08D05D
:10248000B94FB84205D0B94FB84202D0B84FB842A0
:1024900006D14FF6FF57394046F48077394305E0BF
:1024A0004FF2FF57394044F48077394382830184E7
:1024B000F0BD028B4FF2FF331A400283028B0B06F2
:1024C00042EA134202837047F0B50C4615460022DB
:1024D00000210026078C4FF6EF7C07EA0C070784E3
:1024E000028B018C27053E0C40F6FF473A401F0740
:1024F00042EA17422F0642EA1742994FB8420ED0DD
:10250000984FB8420BD0B0F1804F08D0964FB842E8
:1025100005D0964FB84202D0954FB84206D14FF63B
:10252000DF77394046F01007394305E04FF65F7713
:10253000394044F01007394302830184F0BD028B17
:102540004FF6F3731A400283028B0A4302837047EB
:10255000F0B50C46154600220021068C4FF6FE779A
:102560003E400684028B018C4FF60C7632401E05ED
:1025700045EA164632437A4EB0420ED0794EB0420A
:102580000BD0B0F1804F08D0774EB04205D0774ED7
:10259000B04202D0764EB04206D14FF6FD763140C1
:1025A00044F00106314305E04FF6F576314044F042
:1025B0000106314302830184F0BD70B505460C4627
:1025C000674885420ED0674885420BD0B5F1804FF1
:1025D00008D06548854205D06448854202D06448E9
:1025E000854200D100E000BF208850B92389A2882D
:1025F00061882846FFF7ACFFE1882846FFF79FFF78
:1026000025E0208804280AD12389A28861882846E9
:10261000FFF75AFFE1882846FFF74BFF17E02088B5
:1026200008280AD12389A28861882846FFF708FF75
:10263000E1882846FFF7FBFE09E02389A28861882C
:102640002846FFF7B9FEE1882846FFF7AAFE70BDCD
:102650002DE9F04105460C4600260127608808B99F
:10266000022600E00026A088012801D1022700E010
:1026700001272088A0B92389A28861882846FFF70E
:1026800067FFE1882846FFF75AFF23893A4631461B
:102690002846FFF719FFE1882846FFF70AFF13E0F5
:1026A0002389A28861882846FFF70EFFE188284623
:1026B000FFF7FFFE23893A4631462846FFF748FFD9
:1026C000E1882846FFF73BFFBDE8F0810A884B8888
:1026D0001A438B881A43CB881A430B891A434B89B8
:1026E0001A438B891A43A0F8442070474FF6FF71B4
:1026F000818000210180C1804180017270470021EA
:10270000018041808180C180018141818181C181BD
:102710007047002101804180012181800021C1801A
:10272000018170470021018041808180C180018149
:1027300041818181704721B1028842F0010202800B
:1027400004E002884FF6FE731A400280704789B198
:10275000B0F8442042F40042A0F8442010E0000009
:10276000002C0140003401400004004000080040FB
:10277000000C0040B0F84420C2F30E02A0F8442040
:10278000704710B51AB183890B43838104E08389B4
:10279000CC43A4B22340838110BD8182704741EABB
:1027A0000203A0F84830704710B51AB183890B4373
:1027B000838104E08389CC43A4B22340838110BD8C
:1027C00001894FF6F8721140018170470A460021D5
:1027D00001894FF68F73194011430181704730B55D
:1027E00004460D4629462046FFF7F0FF208940F0B9
:1027F0000700208130BD2DE9F04104460D46164604
:102800001F46602D06D13B46012231462046FFF788
:102810005BFE05E03B46012231462046FFF798FE6D
:1028200029462046FFF7D2FF208940F0070020818B
:10283000BDE8F08130B50C4600210189C9B21D0602
:1028400042EA154525432943018130BD2DE9F04178
:1028500005460E4617469846002443463A463146FA
:102860002846FFF7E7FF2C894FF6F8710C4044F03B
:1028700007044FF68F710C4044F070042C81BDE8C2
:10288000F081F0B504460D4616461F463B463246DB
:1028900029462046FFF7CEFF208940F48040208162
:1028A000F0BD0185828270470A46002101884FF6FB
:1028B0008F731940114301807047F0B50C461546DF
:1028C0001E460021002200230189028B038C4FF653
:1028D000F877394021434FF6FC473A4040F2011760
:1028E0003A434FF6DD773B40370545EA17473B4310
:1028F000018102830384F0BD0A460021018B4FF65B
:102900008F7319401143018370470A460021018BE0
:1029100048F6FF731940130641EA134101837047DB
:102920000A460021818B4FF68F7319401143818332
:1029300070470A460021818B48F6FF731940130641
:1029400041EA13418183704721B1028842F080023D
:10295000028004E002884FF67F731A4002807047BD
:1029600021B1828842F00402828004E082884FF61E
:10297000FB731A408280704721B1828842F00802BE
:10298000828004E082884FF6F7731A408280704795
:1029900021B1828842F00102828004E082884FF6F1
:1029A000FE731A40828070470A460021018B4FF661
:1029B000F77319401143018370470A460021018BC8
:1029C0004FF2FF731940130641EA13410183704728
:1029D0000A460021818B4FF6F7731940114381831A
:1029E00070470A460021818B4FF2FF73194013068E
:1029F00041EA1341818370470A460021018B4FF65B
:102A0000FB7319401143018370470A460021018B73
:102A10004FF6FF331940130641EA13410183704713
:102A20000A460021818B4FF6FB73194011438183C5
:102A300070470A460021818B4FF6FF331940130679
:102A400041EA1341818370470A460021018B4FF60A
:102A50007F7319401143018370470A460021018B9F
:102A6000C1F30E01130641EA1341018370470A4680
:102A70000021818B4FF67F7319401143818370478A
:102A80000A460021818BC1F30E01130641EA13416E
:102A9000818370470A460021018C4FF6FD7319406F
:102AA0001143018470470A460021018C4FF6F773E9
:102AB00019401143018470470A460021018C4FF6EA
:102AC000DF731940130541EA1341018470470A4638
:102AD0000021018C4FF67F731940130541EA134121
:102AE000018470470A460021018C4FF6FF531940BC
:102AF000130641EA1341018470470A460021018C04
:102B00004FF2FF731940130641EA134101847047E5
:102B10000A460021018C4DF6FF731940130741EA64
:102B200013410184704730B5002301248C40A3B2C7
:102B3000048CDD43ADB22C400484048C02FA01F510
:102B4000ADB22C43048430BD30B5002304248C4046
:102B5000A3B2048CDD43ADB22C400484048C02FA91
:102B600001F5ADB22C43048430BD70B5034600209E
:102B700000241846183001258D40ACB21D8CE64368
:102B8000B6B235401D8409B1082909D100EB6100B6
:102B9000056825F0700505600568154305600CE0C3
:102BA0000D1FADB200EB6500056825F4E04505603A
:102BB0000568160645EA1645056070BD21B1028814
:102BC00042F00202028004E002884FF6FD731A40D0
:102BD0000280704721B1028842F00402028004E0C2
:102BE00002884FF6FB731A400280704721B1828839
:102BF00042F08002828004E082884FF67F731A40A0
:102C00008280704702884FF6F7731A40028002886C
:102C10000A430280704782884FF68F731A40828081
:102C200082880A438280704702894FF6F8731A40FF
:102C3000028102890A430281704702894FF67F733D
:102C40001A40028102890A430281704781847047D9
:102C500081857047818670470187704781877047FB
:102C6000A0F84010704702884FF6FF431A400280D8
:102C700002880A43028070470146888E70470146E9
:102C8000088F70470146888F70470146B1F84000B1
:102C900070470146888C70470146088D7047024690
:102CA0000020138A0B4201D0012000E00020704771
:102CB000CA430282704730B5024600200023002438
:102CC000158A05EA0103958905EA010413B10CB1DF
:102CD000012000E0002030BDCA430282704700009E
:102CE0000948804709480047FEE7FEE7FEE7FEE7A0
:102CF000FEE7FEE7FEE7FEE7FEE7FEE704480549DC
:102D0000054A064B7047000055020008ED00000818
:102D1000A0010020A0070020A0030020A0030020A5
:102D20001CB5002500240026642000F096F800F071
:102D3000B4F800F043FA00F035FB40F2CF216320F5
:102D400000F008FA4FF4966000F0DAF852E02A48F2
:102D50000068401BB0F57A7F29D327480568701CAE
:102D6000C6B216F0010F04D002212448FDF779FC09
:102D700003E002212148FDF776FCE8B28DF803005C
:102D8000280A8DF80200280C8DF80100280E8DF815
:102D900000001B4800788DF800001A4800788DF874
:102DA00001008DF80240184800788DF803000121D9
:102DB0001648FDF73CFC10B984F0100416E002211F
:102DC0001248FDF734FC10B984F001040EE0042130
:102DD0000E48FDF72CFC10B984F0020406E008212F
:102DE0000A48FDF724FC08B984F00404084804707C
:102DF00000F076FBABE7000044000020000C01402F
:102E000048000020490000205A000020000801402E
:102E10005D000020704700BFFEE700BFFEE700BF77
:102E2000FEE700BFFEE7704770477047704700EB52
:102E3000C001C9004FF0E0225161002191610521DC
:102E4000116100BF4FF0E021096911F4803FF9D012
:102E500004214FF0E0221161704700B5034603E002
:102E60004FF47A70FFF7E3FF1800A3F101018BB272
:102E7000F6D100BD10B5044603E04FF47A70FFF7B9
:102E8000ECFF2000A4F101018CB2F6D110BD10B509
:102E90004FF4A060FDF75EFA10BD10B5FDF782FC9F
:102EA0004FF48030FDF79EFCFDF7DBFC0446012C5F
:102EB00024D14FF4E0110004FDF7F8FC0020FDF7E9
:102EC00012FDA002FDF718FD0020FDF71EFD0220F7
:102ED000FEF740F81020FEF751F80120FDF7F2FC54
:102EE00000BF3920FDF7A1FC0028FAD00220FDF731
:102EF000ECFC00BFFDF7F2FC0828FBD110BD000080
:102F000010B586B00446012144F20400FDF7B1FD7E
:102F10004FF40070ADF8140003208DF8160018204F
:102F20008DF8170005A97848FDF7F0FA4FF4806096
:102F3000ADF8140004208DF8170005A97248FDF7BC
:102F4000E5FA25208DF8000003208DF801008DF8AA
:102F5000020001208DF803006846FDF700FA019495
:102F60000020ADF80800ADF80A00ADF80C00ADF88F
:102F700010000C20ADF80E0001A96448FDF727FEF3
:102F8000012240F225516148FDF7B9FE01215F4859
:102F9000FDF7A9FE06B010BD10B55D48007810F031
:102FA000400F28D05B480078401C5A4908700846FA
:102FB000007859490978884207DA5848554A127802
:102FC000815C5248FDF7FFFE1BE05148007840F05D
:102FD00080004F490870002240F227714B48FDF7EE
:102FE0008EFE4A48FDF7F3FE012240F22551474884
:102FF000FDF785FE05E0002240F227714348FDF70A
:103000007EFE10BD46490968464A11604649097866
:1030100011F0400F0BD14449097841F04001424A78
:103020001170424908700121414A117013E0404972
:1030300009780A2909DA3D493D4A127888543C4901
:103040000978491C3A4A117005E03749097841F07E
:103050002001354A1170704710B540F225512B48B8
:10306000FDF735FF30B12948FDF7B1FEC4B2204667
:10307000FFF7C8FF40F227712448FDF728FF08B189
:10308000FFF78AFF10BD01462748007810F0400F77
:1030900014D023480068234A1268801A88420BD350
:1030A0002148007840F080001F4A10701C480068DA
:1030B0001C4A1060012070470020FCE70020FAE75E
:1030C00010B504461248007810F0400F1AD10022C3
:1030D00040F225510D48FDF712FE00200D49087001
:1030E0000D48047040200A4908700C4801780748D0
:1030F000FDF769FE012240F227710448FDF7FFFD4C
:10310000002010BD0120FCE700080140003801400C
:103110003300002031000020300000206E0000202D
:10312000440000202C000020320000206400002019
:103130002800002008B51D208DF8000003208DF820
:1031400001008DF8020001208DF803006846FDF7AC
:1031500006F908BD3EB505460C4601210220FDF7E3
:1031600095FCFFF7E7FFADF80450ADF800400020F4
:10317000ADF80200ADF8060069460E48FEF7ACFF58
:10318000012211460B48FFF7FCFA01210948FFF71D
:10319000D2FA3EBD10B501210648FFF78CFD40B1C3
:1031A00001210448FFF798FD03480068401C0249CC
:1031B000086010BD000400404400002008B5012153
:1031C0007C20FDF756FC0F20ADF8000048208DF85C
:1031D000030069460148FDF799F908BD0008014060
:1031E00000B589B001210420FDF743FC0121480608
:1031F000FDF74CFC4FF48050ADF8200003208DF813
:10320000220018208DF8230008A96448FDF77EF9F4
:103210004FF40060ADF8200048208DF8230008A985
:103220005E48FDF773F900208DF81A008DF81B0039
:103230008DF81C0001208DF81D0000208DF81E0067
:103240008DF81F008DF816008DF8170007208DF8F7
:10325000180006208DF819000920ADF8140005A902
:103260004F48FEF774F900208DF80E008DF80F001E
:1032700001208DF810000020ADF80400ADF8060024
:10328000ADF80800ADF80A00ADF80C0001208DF88B
:10329000110001A8FEF7E9F9002009B000BDF0B562
:1032A00085B006460D4612200090002001908DF852
:1032B00008008DF809008DF80A50002405E0315D02
:1032C0000DF10B000155601C84B2AC42F7DB69467E
:1032D0003348FEF7BCFA0746384605B0F0BD10B5D6
:1032E000044621462E48FEF758FB012801D1002054
:1032F00010BD0120FCE730B585B005460021284807
:10330000FEF72BFC10B9002005B030BD6A46002145
:103310002348FEF79FFB002405E00DF10B00005D44
:103320002855601C84B2082CF7DB9DF80A00EBE7F7
:1033300030B587B00024002500208DF800000290F1
:1033400003908DF810008DF811008DF812008DF8A3
:103350001B0000BF05E000210DF113000155601CAA
:10336000C4B2082CF7DB02AA00210D48FEF772FB5D
:103370009DF81250029812280ED19DF812008DF877
:103380000000002406E00DF11300005D0DF80400BC
:10339000601CC4B2AC42F6DB07B030BD000801408F
:1033A0000064004008B501211C20FDF762FB0120EC
:1033B000ADF8000048208DF803006946D948FDF7B4
:1033C000A5F84FF48070ADF8000048208DF8030098
:1033D0006946D548FDF79AF84FF40070ADF8000043
:1033E00048208DF803006946CF48FDF78FF8032089
:1033F0008DF802004FF48070ADF8000010208DF8B9
:1034000003006946C748FDF781F840F60140ADF872
:10341000000010208DF803006946C348FDF776F8D8
:103420004FF40060ADF8000010208DF803006946ED
:10343000BD48FDF76BF80120ADF8000010208DF8B5
:1034400003006946B848FDF761F80220ADF80000B6
:1034500010208DF803006946B348FDF757F84FF484
:103460008071B048FDF7FFF84FF48061AE48FDF77A
:10347000FAF84FF40061AC48FDF7F5F80121AA48CD
:10348000FDF7F1F80221A848FDF7EDF808BD10B5E9
:103490000146A64B1B785B1EA54C237011F0100F44
:1034A00004D023461B7843F0020323709F4B1B7804
:1034B0005811A04B1A5C9D4B1B78DB06180E00F0D0
:1034C000E0005040642280EA0203994C637011F0DE
:1034D000100F04D023465B7883F01003637010BD97
:1034E00010B500244FF480718F48FDF7A0F8924981
:1034F00008704FF400718C48FDF799F88F490870F7
:1035000001218848FDF793F88D4908708D480068BF
:103510008D490968401AB0F5FA7F09D38B480078C5
:1035200030B10020894908708949087089490870BC
:103530008448006884490968401A41F28831884209
:1035400009D34FF480617848FDF78DF84FF400619E
:103550007548FDF788F87D480078C0B9764800784E
:1035600048B97B480078782811DA79480078401CFF
:10357000774908700BE07148007840B975480078C9
:10358000782804DA73480078401C724908700F20CC
:10359000FFF779FDF0B37048007802286BD16B48D3
:1035A000007818BB6D480078FE285BD16B484078E6
:1035B000A12857D1F5205E490870F62048700120F7
:1035C00062490870012462480078202804DDA102C5
:1035D0005548FDF746F845E05E480078022841DD91
:1035E0004FF400615048FDF73CF83BE05748007845
:1035F00001281ED15948007800F00300022831D17B
:103600005648407800F0030003282BD15348007837
:10361000464900E032E00870504840785049087050
:1036200050480078FFF733FF022048490870012412
:1036300018E046480078022814D1484800783B49F1
:10364000097888420ED1454840784749374A127870
:1036500001EBA2010978884204D142480078FFF7C3
:1036600016FF01243CB10220FFF72AFD00240121AE
:103670002D48FCF7F6FF00203C4908703C480078D4
:1036800010F0800F13D0002039490870012126481E
:10369000FCF7E9FF2D480078022808D141022248B2
:1036A000FCF7DFFF4FF400611F48FCF7DAFF10BDA5
:1036B00030B51E4C2478641E1D4D2C7010F0100F78
:1036C00004D02C46247844F002042C70174C247843
:1036D0006211184CA35C154C2478E406220E02F00B
:1036E000E0025A40002110F0010F01D04C1CE1B261
:1036F00010F0020F01D08C1CE1B210F0040F01D0C9
:103700000C1DE1B21B4C635C82EA0304084D6C7033
:1037100010F0100F04D02C46647884F010046C7004
:1037200030BD000000080140000C01405B0000209B
:103730006E0000204A0000205E0000205F00002094
:1037400060000020440000202C0000205A000020CF
:1037500048000020490000202800002064000020CC
:103760005C0000205D0000200438000832000020CA
:1037700033000020520000207047704770477546A4
:1037800000F028F8AE4605006946534620F00700D1
:10379000854618B020B5FFF7B1FABDE820404FF0DC
:1037A00000064FF000074FF000084FF0000B21F02B
:1037B0000701AC46ACE8C009ACE8C009ACE8C009F8
:1037C000ACE8C0098D4670470446AFF30080204640
:1037D000FCF7D5FC004870474001002001487047C5
:1037E000704700BF4401002001491820ABBEFEE72E
:1037F00026000200704710B5FFF7F0FF4FF0000100
:10380000016010BDC5E585A54565052555751535CE
:10381000D5F595B575553515F5D5B595E5C5A58598
:103820006545250535157555B595F5D5A585E5C5C8
:103830002505654585A5C5E50525456515355575F8
:1038400095B5D5F56438000800000020640000003C
:1038500028010008C8380008640000203C07000068
:103860004401000800A24A0400000000000000001B
:103870000102030406070809000000000102030416
:1038800001020304060708090204060800000000FC
:103890000000000000000000000000000000000028
:1038A0000000000000000000000000000000009088
:1038B000B020F06040D030D26486987ACC2E0000E0
:0838C000000000000000000000
:04000005080000ED02
:00000001FF
