:020000040800F2
:10000000B00D0020C1240008B12A0008B32A00085E
:10001000B72A0008BB2A0008BF2A00080000000019
:10002000000000000000000000000000C32A0008DB
:10003000C52A000800000000C72A0008C92A0008D5
:10004000DB240008DB240008DB240008DB24000894
:10005000DB240008DB2400083D430008DB24000803
:10006000DB240008DB240008DB240008DB24000874
:10007000DB240008DB240008DB240008DB24000864
:10008000DB240008DB240008DB240008DB24000854
:10009000DB240008DB240008DB2400084B430008B5
:1000A000DB240008DB240008DB240008DB24000834
:1000B000DB24000811340008DB240008DB240008DE
:1000C000DB240008DB240008DB240008DB24000814
:1000D000DB2400089F2E00087D2F00089F2F0008BA
:1000E0005B430008DB240008DB24000800F002F872
:1000F00000F05AF80AA090E8000C82448344AAF168
:100100000107DA4501D100F04FF8AFF2090EBAE865
:100110000F0013F0010F18BFFB1A43F0010318473B
:100120007C4700009C4700000A444FF0000C10F888
:10013000013B13F0070408BF10F8014B1D1108BF65
:1001400010F8015B641E05D010F8016B641E01F805
:10015000016BF9D113F0080F1EBF10F8014BAD1C55
:100160000C1B09D16D1E58BF01F801CBFAD505E073
:1001700014F8016B01F8016B6D1EF9D59142D6D3CD
:10018000704700000023002400250026103A28BFF5
:1001900078C1FBD8520728BF30C148BF0B607047F9
:1001A0001FB51FBD10B510BD04F041FA1146FFF791
:1001B000F7FF02F02FFB04F05FFA03B4FFF7F2FF42
:1001C00003BC04F063FA00000CB50020019000901D
:1001D0006C48006840F480306A49086000BF694894
:1001E000006800F4003000900198401C01900098D5
:1001F00018B90198B0F5A06FF1D16248006800F419
:10020000003010B10120009001E000200090009823
:10021000012843D15C48006840F010005A4908604A
:100220000846006820F0030008600846006840F0B7
:1002300002000860534840685249486008464068D8
:1002400048600846406840F480604860084640685E
:1002500020F47C1048600846406840F4E81048608C
:100260000846006840F08070086000BF454800689C
:1002700000F000700028F9D04248406820F00300E8
:10028000404948600846406840F00200486000BFAE
:100290003C48406800F00C000828F9D10CBD10B5AE
:1002A000FFF792FF10BD10B53648006840F001001E
:1002B000344908600846406834490840314948607C
:1002C00008460068324908402E4908600846006820
:1002D00020F4802008600846406820F4FE00486052
:1002E0004FF41F008860FFF7DAFF4FF000602949E4
:1002F000086010BD10B5002100200022214B5B6872
:1003000003F00C0121B1042906D0082928D107E007
:10031000214B224C236027E01F4B204C236023E01D
:10032000184B5B6803F47010164B5B6803F4803263
:10033000022303EB904022B9194B4343174C23602F
:100340000DE0104B5B6803F4003323B1144B4343BF
:10035000124C236003E0104B4343104C236003E036
:100360000D4B0E4C236000BF00BF064B5B68C3F310
:1003700003130C4CE15C094B1B68CB40074C23601A
:1003800010BD000000100240002002400000FFF8F5
:10039000FFFFF6FE08ED00E000127A0000000020EA
:1003A00000093D000400002031490143314A116039
:1003B000704770B5002100230F22C47804B32D4C80
:1003C000246804F4E064C4F5E064210AC1F1040384
:1003D000CA40447804FA03F18478144021430901A7
:1003E000254C0678A155047804F01F050124AC4083
:1003F00005786D11AD0005F1E025C5F8004109E073
:10040000047804F01F050124AC401C4D06787611D9
:1004100045F8264070BD1A4A0A400243154B1B1F7F
:100420001A60704739B1134A121D12680243114B0A
:100430001B1D1A6006E00F4A121D126882430D4B05
:100440001B1D1A607047042808D14FF0E02109698C
:1004500041F004014FF0E022116107E04FF0E0218C
:10046000096921F004014FF0E0221161704700009A
:100470000000FA050CED00E000E400E080E100E09F
:1004800080FFFF1F10B50446CC48844208D10121EB
:10049000042000F02DFB0021042000F029FB46E0A1
:1004A000C748844208D10121082000F021FB002127
:1004B000082000F01DFB3AE0C248844208D1012127
:1004C000102000F015FB0021102000F011FB2EE0A1
:1004D000BD48844208D10121202000F009FB002101
:1004E000202000F005FB22E0B848844208D1012119
:1004F000402000F0FDFA0021402000F0F9FA16E05B
:10050000B348844208D10121802000F0F1FA002193
:10051000802000F0EDFA0AE0AE48844207D10121C4
:10052000801500F0E5FA0021A01500F0E1FA10BDF9
:1005300010B50121084600F0DBFA0021012000F08F
:10054000D7FA10BD2DE9F041024600250026002013
:1005500000230024002791F803C00CF00F0591F848
:1005600003C00CF0100CBCF1000F03D091F802C0D6
:100570004CEA050591F800C0BCF1000F31D01468B9
:1005800000202BE04FF0010C0CFA00F3B1F800C092
:100590000CEA03069E4220D183004FF00F0C0CFAA8
:1005A00003F7BC4305FA03FC4CEA040491F803C0CA
:1005B000BCF1280F06D14FF0010C0CFA00FCC2F878
:1005C00014C00AE091F803C0BCF1480F05D14FF008
:1005D000010C0CFA00FCC2F810C0401C0828D1D352
:1005E0001460B1F800C0BCF1FF0F34DD5468002086
:1005F0002EE000F1080C4FF0010808FA0CF3B1F8F6
:1006000000C00CEA03069E4221D183004FF00F0C7C
:100610000CFA03F7BC4305FA03FC4CEA040491F816
:1006200003C0BCF1280F05D100F1080C08FA0CF842
:10063000C2F8148091F803C0BCF1480F07D100F153
:10064000080C4FF0010808FA0CF8C2F81080401CA2
:100650000828CED35460BDE8F0814FF6FF710180C9
:10066000022181700421C170704702460020936806
:100670000B400BB1012000E0002070470146886864
:1006800080B2704702460020D3680B400BB10120B6
:1006900000E0002070470146C86880B270470161E1
:1006A0007047416170470AB1016100E041617047E4
:1006B000C16070474FF480320A4382618161826178
:1006C00082698269704702460020434B18684FF6E2
:1006D0008073184040EA021008433F4B186070478F
:1006E0003E49C8617047F0B50A4600230024002146
:1006F000002500F00046B6F1004F02D1364EF169F8
:1007000001E0354E7168C0F3034583B200F4401632
:10071000B6F5401F08D121F070612F4E766826F0A3
:1007200070662D4F7E6012E000F48016B6F5801FD3
:1007300006D1032606FA05F4A14341F0706106E0F4
:10074000460D360103FA06F6B14341F0706122B15D
:10075000460D360103FA06F6314300F00046B6F1C5
:10076000004F02D11C4EF16101E01B4E7160F0BDE3
:1007700030B500228B071C0F0F2303FA04F2164B2F
:1007800008338C1053F824309343134C08348D10E5
:1007900044F8253023468C1053F824308C07240F5E
:1007A00000FA04F423430C4C08348D1044F825302F
:1007B00030BD0A49DC310860704700000008014084
:1007C000000C0140001001400014014000180140DD
:1007D000001C0140002001400000014000002042B8
:1007E000DF48006840F00100DD49086008464068C5
:1007F000DC490840DA49486008460068DA490840A0
:10080000D74908600846006820F480200860084640
:10081000406820F4FE0048604FF41F008860704775
:10082000CF49096821F48031CD4A11601146096829
:1008300021F480211160B0F5803F03D0B0F5802F06
:100840000ED106E0C649096841F48031C44A1160FE
:1008500007E0C349096841F4A021C14A116000E0E2
:1008600000BF00BF704710B50146002200230020E2
:100870004A11012A02D1BA4C236806E0022A02D1A9
:10088000B74C236A01E0B64C636A01F01F020124F1
:1008900094401C400CB1012000E0002010BD38B590
:1008A000002000900024002500BF3120FFF7DBFF6F
:1008B00005460098401C00900098B0F5A06F01D04C
:1008C000002DF2D03120FFF7CEFF08B1012400E067
:1008D0000024204638BD01460020A14A106820F0BF
:1008E000F80040EAC10010607047A04908607047F6
:1008F000024600209A4B586820F47C1042EA01031B
:100900001843974B586070479849086670470146EE
:100910000020934A506820F003000843506070475D
:100920008F48406800F00C007047014600208C4A58
:10093000506820F0F00008435060704701460020E6
:10094000874A506820F4E0600843506070470146D1
:100950000020834A506820F4605040EAC100506093
:10096000704729B17E4A527A02437D4B5A7204E0A5
:100970007B4A527A82437A4B5A7270477B49D8310C
:100980000860704701460020754A506820F44040D6
:100990000843506070470021714A20321170704A3C
:1009A00082F82010012802D004280AD104E0012195
:1009B0006B4A2032117005E00521694A203211701E
:1009C00000E000BF00BF7047694908607047644994
:1009D000096A0143624A11627047654944390860F7
:1009E000704730B500210022002400235C4D6D6863
:1009F00005F00C0121B1042905D0082923D105E017
:100A00005C4D056022E05B4D05601FE0544D6D6854
:100A100005F47012524D6D6805F48034022505EB23
:100A200092421CB9544D554305600BE04C4D6D6826
:100A300005F400351DB1504D5543056002E04D4DA4
:100A40005543056002E04B4D056000BF00BF444DBB
:100A50006D6805F0F0010909484D6B5C0568DD40E3
:100A600045603F4D6D6805F4E061090A434D6B5CDC
:100A70004568DD4085603A4D6D6805F46051C90AEE
:100A80003E4D6B5C4568DD40C560354D6D6805F4D5
:100A90004041890B3A4D6B5CC568B5FBF3F50561C8
:100AA00030BD29B12E4A526902432D4B5A6104E0F0
:100AB0002B4A526982432A4B5A61704729B1284A0E
:100AC00092690243264B9A6104E0254A9269824367
:100AD000234B9A61704729B1214AD2690243204BC6
:100AE000DA6104E01E4AD26982431D4BDA61704725
:100AF00029B11B4AD2680243194BDA6004E0184A54
:100B0000D2688243164BDA60704729B1144A1269E1
:100B10000243134B1A6104E0114A12698243104BDD
:100B20001A61704712494039086070470F49C8641C
:100B300070470B49C87170470948406A40F080709F
:100B400007494862704701460020054A92680A40FA
:100B50000AB1012000E00020704701498872704707
:100B6000001002400000FFF8FFFFF6FE00004242C6
:100B70008004424200127A0000093D001400002067
:100B80002400002010B50446FB48844209D101210D
:100B90008803FFF7ADFF00214FF48040FFF7A8FF67
:100BA00032E0F648844209D101214804FFF7ADFF45
:100BB00000214FF40030FFF7A8FF25E0F048844201
:100BC00009D101218804FFF7A0FF00214FF4802004
:100BD000FFF79BFF18E0EB48844209D10121C804CC
:100BE000FFF793FF00214FF40020FFF78EFF0BE08B
:100BF000E548844208D101210805FFF786FF00215E
:100C00004FF48010FFF781FF10BD2DE9F04786B04B
:100C100005460E460024A24600BFA1460027B08923
:100C200000B100BF2F462C8A4CF6FF700440F088BC
:100C300004432C82AC894EF6F3100440B08831890D
:100C40000843718908430443AC81AC8A4FF6FF40E6
:100C50000440B0890443AC8201A8FFF7C2FEC64835
:100C6000874202D1DDF810A001E0DDF80CA0A889D0
:100C700000F4004040B10AEBCA0000EB0A103168F2
:100C80004900B0FBF1F807E00AEBCA0000EB0A10DC
:100C900031688900B0FBF1F86420B8FBF0F0040182
:100CA0002009642101FB1089A88900F4004040B1AB
:100CB000322000EBC900B0FBF1F000F00700044364
:100CC00008E0322000EB09106421B0FBF1F000F0E5
:100CD0000F0004432C8106B0BDE8F0874FF4165195
:100CE000016000218180C18001810C2141810021AE
:100CF0008181704710B502460020108A4FF2FF0331
:100D000018400B884C8823438C882343CC8823438A
:100D10001843108210BD0021018041808180C18074
:100D2000704721B1828942F40052828104E08289B5
:100D30004DF6FF731A4082817047F0B503460024D8
:100D400000260025002040F66A17B94200D100BFF6
:100D50001846C1F3421401F01F06012707FA06F5F1
:100D6000012C01D10C3004E0022C01D1103000E044
:100D700014301AB107682F43076002E00768AF43D9
:100D80000760F0BD1AB1838A0B43838202E0838A35
:100D90008B4383827047028A4FF6F0731A400282B7
:100DA000028A0A430282704782894FF2FF731A4017
:100DB000828182890A438281704721B1828942F00F
:100DC0000202828104E082894FF6FD731A4082811B
:100DD0007047028A4FF6DF731A400282028A0A4382
:100DE0000282704721B1028A42F48042028204E00A
:100DF000028A4BF6FF731A4002827047C1F3080261
:100E00008280704701468888C0F308007047818956
:100E100041F0010181817047028BD2B20283028BC3
:100E200042EA012202837047028B02F47F4202836E
:100E3000028B0A430283704721B1828A42F020026A
:100E4000828204E0828A4FF6DF731A408282704702
:100E500021B1828A42F01002828204E0828A4FF637
:100E6000EF731A408282704721B1828A42F00802F1
:100E7000828204E0828A4FF6F7731A4082827047BA
:100E800021B1828942F40042828103E08289C2F367
:100E90000E028281704721B1828A42F4006282820E
:100EA00004E0828A4FF2FF731A4082827047828A7E
:100EB0004FF6FB731A408282828A0A43828270470D
:100EC00021B1828A42F00202828204E0828A4FF6D5
:100ED000FD731A408282704702460020B1F5007F00
:100EE00000D100BF13880B400BB1012000E00020AF
:100EF000704701F40072B2F5007F00D100BFCA4311
:100F00000280704770B502460024002300250020AF
:100F100040F66A16B14200D100BFC1F3421501F09C
:100F20001F03012606FA03F3012D02D196893340EF
:100F300006E0022D02D1168A334001E0968A334042
:100F40000C12012606FA04F41688344013B10CB1D1
:100F5000012000E0002070BD10B50022002340F603
:100F60006A14A14200D100BF0A1201249440A3B226
:100F7000DC43048010BD0000003801400044004004
:100F800000480040004C0040005000400146002056
:100F9000FE4A106800F03800084310607047FB49B3
:100FA000096821F00801F94A1160114609680143F6
:100FB00011607047F549096821F01001F34A11608A
:100FC00011460968014311607047F148EF494860D4
:100FD000F04848607047EE48EC494860ED4848608A
:100FE0007047EA48006940F08000E84908617047AE
:100FF000E648006940F08000E44908617047042039
:10100000E249C96801F0010109B101200EE0DF49A0
:10101000C96801F0040109B1022007E0DB49C96891
:1010200001F0100109B1032000E00420704700B571
:1010300002460423FFF7E3FF034603E0FFF7DFFF69
:101040000346521E012B01D1002AF7D102B9052314
:10105000184600BD30B5044604254FF43020FFF794
:10106000E6FF0546042D17D1C848006940F002008C
:10107000C649086108464461006940F040000861C3
:101080004FF43020FFF7D3FF0546C048006941F612
:10109000FD710840BD490861284630BD10B50424E3
:1010A0004FF43020FFF7C3FF0446042C16D1B74895
:1010B000006940F00400B54908610846006940F045
:1010C000400008614FF43020FFF7B1FF0446AF48FD
:1010D000006941F6FB710840AC490861204610BD2B
:1010E00000B502460423FFF78AFF034603E0FFF73B
:1010F00086FF0346521E012B01D1002AF7D102B907
:101100000523184600BD10B504244FF43020FFF726
:10111000E7FF0446042C16D19C48006940F0040007
:101120009A4908610846006940F0400008614FF4A0
:101130003020FFF7D5FF04469448006941F6FB7163
:10114000084092490861204610BD00208F49C969B6
:1011500001F0020109B1012000E00020704730B524
:10116000A5250424FFF7F1FF00B100254FF430203E
:10117000FFF75DFF0446042C3AD185488349886017
:10118000844888600846006940F0200008610846ED
:10119000006940F0400008614FF43020FFF747FF3E
:1011A0000446042C1BD17948006941F6DF710840E0
:1011B000764908610846006940F0100008617648E9
:1011C0000580E002FFF733FF0446052C10D06F487E
:1011D000006941F6EF7108406C49086108E0052C90
:1011E00006D06A48006941F6EF7108406749086116
:1011F000204630BD78B506460C46042500200090F8
:10120000E802FFF714FF0546042D24D15F4800696A
:1012100040F001005D4908613480E802FFF707FFF4
:101220000546042D10D1B01C0090200C00990880B8
:10123000E802FFF7FCFE05465448006941F6FE71DE
:1012400008405249086106E05048006941F6FE71C5
:1012500008404E490861284678BD70B504460D46E1
:101260000426F002FFF7E3FE0646042E11D147489C
:10127000006940F00100454908612580F002FFF750
:10128000D6FE06464148006941F6FE7108403F49D6
:101290000861304670BD70B505460E460424E00274
:1012A000FFF7C5FE0446042C17D13948374988603A
:1012B000384888600846006940F0100008612E80B8
:1012C000E002FFF7B4FE0446052C06D02F48006963
:1012D00041F6EF7108402D490861204670BD2DE9A7
:1012E000F04304464FF6FF763746B046B146042534
:1012F000E443E6B2C4F30727C4F307484FEA14698E
:10130000E802FFF794FE0546042D49D120481F4905
:101310008860204888600846006940F01000086135
:10132000FF2E06D01C4808300680E802FFF77FFE3B
:101330000546042D08D1FF2F06D017480A30078034
:10134000E802FFF774FE0546042D0AD1B8F1FF0F3D
:1013500007D011480C30A0F80080E802FFF767FEC4
:101360000546042D0AD1B9F1FF0F07D00A480E3007
:10137000A0F80090E802FFF75AFE0546052D0FD0B1
:101380000248006941F6EF71084007E00020024082
:1013900023016745AB89EFCD00F8FF1F664908615F
:1013A0002846BDE8F08330B5054604244FF43020CC
:1013B000FFF73DFE0446042C41D160485E49886039
:1013C0005F4888600846006940F0200008610846D0
:1013D000006940F0400008614FF43020FFF727FE1D
:1013E0000446042C22D15448006941F6DF710840BC
:1013F000514908610846006940F0100008611DB1BC
:1014000000205049088002E0A5204E4908804FF492
:101410003020FFF70CFE0446052C10D0464800692A
:1014200041F6EF7108404449086108E0052C06D0F8
:101430004148006941F6DF7108403F490861204694
:1014400030BDF0B505460E46174604243B483A49E0
:1014500088603B488860E002FFF7E9FD0446042C01
:1014600019D13548006940F010003349086147F050
:10147000F800304328433349891C0880E002FFF715
:10148000D6FD0446052C06D02B48006941F6EF71C5
:101490000840294908612046F0BD2748C0698008F6
:1014A00070472548006A704700202349096801F009
:1014B000200109B1012000E00020704729B11E4A37
:1014C000126902431C4B1A6104E01B4A12698243F1
:1014D000194B1A61704701460020012908D1164AAC
:1014E000D26902F001020AB1012008E0002006E002
:1014F000114AD2680A400AB1012000E0002070477A
:101500000D49C860704704200B49C96801F001010A
:1015100009B101200EE00849C96801F0040109B1D0
:10152000022007E00449C96801F0100109B1032055
:1015300000E00420704700000020024023016745BE
:10154000AB89EFCD00F8FF1F10B50446FE4884427A
:1015500008D10121C014FFF7CBFA0021E014FFF7F6
:10156000C7FAC4E0B4F1804F08D101210846FFF763
:10157000CCFA00210120FFF7C8FAB8E0F348844212
:1015800008D101210220FFF7C0FA00210220FFF755
:10159000BCFAACE0EE48844208D101210420FFF7F8
:1015A000B4FA00210420FFF7B0FAA0E0E948844231
:1015B00008D101210820FFF7A8FA00210820FFF731
:1015C000A4FA94E0E448844208D101211020FFF7F6
:1015D0009CFA00211020FFF798FA88E0DF48844247
:1015E00008D101212020FFF790FA00212020FFF7E9
:1015F0008CFA7CE0DA48844208D101214014FFF7DC
:1016000077FA00216014FFF773FA70E0D54884423E
:1016100009D10121C804FFF76BFA00214FF4002023
:10162000FFF766FA63E0D048844209D1012108053A
:10163000FFF75EFA00214FF48010FFF759FA56E0E9
:10164000CA48844209D101214805FFF751FA002117
:101650004FF40010FFF74CFA49E0C548844208D126
:1016600001214020FFF751FA00214020FFF74DFAF9
:101670003DE0C048844208D101218020FFF745FAAF
:1016800000218020FFF741FA31E0BB48844208D1B5
:1016900001218015FFF739FA0021A015FFF735FA6F
:1016A00025E0B648844209D101210804FFF720FA59
:1016B00000214FF48030FFF71BFA18E0B048844255
:1016C00009D101214804FFF713FA00214FF400303B
:1016D000FFF70EFA0BE0AB48844208D101218804E1
:1016E000FFF706FA00214FF48020FFF701FA10BD42
:1016F00000220288944B98420ED0994B98420BD00E
:10170000B0F1804F08D0914B984205D0904B984251
:1017100002D0904B984204D14FF68F731A404B88F9
:101720001A438D4B984207D08C4B984204D04FF609
:10173000FF431A40CB881A4302808B8883850B882D
:101740000385814B98420BD0854B984208D08B4B38
:10175000984205D08A4B984202D08A4B984201D1D8
:101760000B7A038601238382704770B50024002220
:101770000023058C4FF6FE7635400584028C838865
:10178000048B4FF68F752C40B51E2C400D882C43D2
:10179000751E2A400D892A434D882A436A4DA84266
:1017A0000BD06F4DA84208D0744DA84205D0744D9F
:1017B000A84202D0734DA84213D14FF6F7752A40C4
:1017C0004D892A434FF6FB752A408D882A434FF6F0
:1017D000FF652B404FF6FF552B408D892B43CD895C
:1017E0002B4383800483CD888586028470BD70B5C9
:1017F000002400220023058C4FF6EF763540058447
:10180000028C8388048B48F6FF752C404FF6FF4509
:101810002C400D884FF6FF7606EA05252C434FF63F
:10182000DF752A400D8906EA05152A434D8806EA28
:1018300005152A43444DA84202D0494DA8421DD166
:101840004FF67F752A404D894FF6FF7606EA05155B
:101850002A434FF6BF752A408D8806EA05152A43AC
:101860004FF6FF352B404FF2FF752B408D8906EA6E
:1018700085052B43CD8906EA85052B4383800483A8
:10188000CD880587028470BD70B500240022002336
:10189000058C4FF6FF6635400584028C8388848B67
:1018A0004FF68F752C404FF6FC752C400D882C435D
:1018B0004FF6FF552A400D894FF6FF7606EA0525BB
:1018C0002A434D8806EA05252A431F4DA84202D027
:1018D000234DA8421DD14FF2FF752A404D894FF686
:1018E000FF7606EA05252A434FF6FF352A408D8804
:1018F00006EA05252A434EF6FF752B404DF6FF7587
:101900002B408D8906EA05152B43CD8906EA05157E
:101910002B4383808483CD888587028470BD70B516
:10192000002200230024058C4EF6FF763540058406
:10193000038C8488828B48F6FF752A404FF6FF455A
:101940002A400D8820E00000002C014000040040E7
:1019500000080040000C004000100040001400404F
:1019600000340140004C014000500140005401404F
:1019700000180040001C00400020004000400140D2
:1019800000440140004801404FF6FF7606EA052575
:101990002A434DF6FF752B400D8906EA05352B438A
:1019A0004D8806EA05352B43FA4DA84202D0FA4D80
:1019B000A84208D14BF6FF752C408D894FF6FF7673
:1019C00006EA85152C4384808283CD88A0F8405098
:1019D000038470BD828B4FF2FF331A408283828B67
:1019E0004FF6FF7303EA01231A4382837047F0B571
:1019F0000C461546002200210026078C4EF6FF7C7F
:101A000007EA0C070784828B018C4FF6FF7707EA01
:101A1000043640F6FF473A404FF6FF7707EA0527BE
:101A20003A434FF6FF7707EA03373A43D94FB842B4
:101A30000ED0D94FB8420BD0B0F1804F08D0D74F5D
:101A4000B84205D0D64FB84202D0D64FB84206D1E0
:101A50004DF6FF77394046F48057394305E047F6A5
:101A6000FF57394044F48057394382830184F0BDE5
:101A7000828B4FF6F3731A408283828B0A438283F0
:101A80007047F0B50C461546002200210026078C51
:101A90004FF6FF6C07EA0C070784828B018C4FF628
:101AA000FF7707EA04264FF60C773A404FF6FF77A8
:101AB00007EA03172F433A43B64FB8420ED0B64F4A
:101AC000B8420BD0B0F1804F08D0B44FB84205D027
:101AD000B34FB84202D0B34FB84206D14FF6FF57CA
:101AE000394046F48077394305E04FF2FF573940DB
:101AF00044F48077394382830184F0BD028B4FF236
:101B0000FF331A400283028B4FF6FF7303EA01236F
:101B10001A4302837047F0B50C4615460022002197
:101B20000026078C4FF6EF7C07EA0C070784028B30
:101B3000018C4FF6FF7707EA041640F6FF473A405C
:101B40004FF6FF7707EA03373A434FF6FF7707EA86
:101B500005273A438F4FB8420ED08F4FB8420BD073
:101B6000B0F1804F08D08D4FB84205D08C4FB842AD
:101B700002D08C4FB84206D14FF6DF77394046F09D
:101B80001007394305E04FF65F77394044F01007FE
:101B9000394302830184F0BD028B4FF6F3731A4080
:101BA0000283028B0A4302837047F0B50C46154648
:101BB00000220021068C4FF6FE773E400684028B01
:101BC000018C4FF60C7632407E1C06EA03162E433B
:101BD0003243704EB0420ED06F4EB0420BD0B0F1D7
:101BE000804F08D06D4EB04205D06D4EB04202D04D
:101BF0006C4EB04206D14FF6FD76314044F00106FE
:101C0000314305E04FF6F576314044F001063143AB
:101C100002830184F0BD70B505460C465D488542DF
:101C20000ED05D4885420BD0B5F1804F08D05B489F
:101C3000854205D05A48854202D05A48854200D193
:101C400000E000BF208850B92389A2886188284617
:101C5000FFF7ABFFE1882846FFF79EFF25E02088CD
:101C600004280AD12389A28861882846FFF753FFF8
:101C7000E1882846FFF742FF17E0208808280AD1AC
:101C80002389A28861882846FFF7FBFEE188284661
:101C9000FFF7EEFE09E02389A28861882846FFF756
:101CA000A6FEE1882846FFF795FE70BD2DE9F041BC
:101CB00005460C4600260127608808B9022600E088
:101CC0000026A088012801D1022700E001272088F2
:101CD000A0B92389A28861882846FFF766FFE188BA
:101CE0002846FFF759FF23893A4631462846FFF731
:101CF00012FFE1882846FFF701FF13E02389A2883D
:101D000061882846FFF707FFE1882846FFF7F6FEBF
:101D100023893A4631462846FFF747FFE18828469F
:101D2000FFF73AFFBDE8F0810A884B881A438B8899
:101D30001A43CB881A430B891A434B891A438B8960
:101D40001A43A0F8442070474FF6FF7181800021AC
:101D50000180C18041800172704700210180418073
:101D60008180C180018141818181C18170470021D1
:101D700001804180012181800021C1800181704763
:101D80000021018041808180C18001814181818168
:101D900070470000002C0140003401400004004066
:101DA00000080040000C004021B1028842F001020E
:101DB000028004E002884FF6FE731A4002807047EA
:101DC00031B1B0F8442042F40042A0F8442005E0CC
:101DD000B0F84420C2F30E02A0F8442070471AB1B4
:101DE00083890B43838102E083898B43838170471E
:101DF0008182704741EA0203A0F8483070471AB167
:101E000083890B43838102E083898B4383817047FD
:101E100001894FF6F8721140018170470A4600218E
:101E200001894FF68F73194011430181704730B516
:101E300004460D4629462046FFF7F0FF208940F072
:101E40000700208130BD2DE9F04104460D461646BD
:101E50001F46602D06D13B46012231462046FFF742
:101E60005AFE05E03B46012231462046FFF79DFE23
:101E700029462046FFF7D2FF208940F00700208145
:101E8000BDE8F08130B50C4600210189C9B24FF69A
:101E9000FF7505EA0325154325432943018130BD1C
:101EA0002DE9F04105460E46174698460024434664
:101EB0003A4631462846FFF7E5FF2C894FF6F87081
:101EC000044044F007044FF68F70044044F070045F
:101ED0002C81BDE8F081F0B504460D4616461F463C
:101EE0003B46324629462046FFF7CCFF208940F486
:101EF00080402081F0BD0185828270470A46002122
:101F000001884FF68F731940114301807047F0B577
:101F10000C4615461E460021002200230189028B33
:101F2000038C4FF6F877394021434FF6FC473A408F
:101F300040F201173A434FF6DD773B404FF6FF770B
:101F400007EA06172F433B43018102830384F0BD58
:101F50000A460021018B4FF68F731940114301830C
:101F600070470A460021018B48F6FF7319404FF66F
:101F7000FF7303EA02231943018370470A460021D5
:101F8000818B4FF68F7319401143818370470A4646
:101F90000021818B48F6FF7319404FF6FF7303EA67
:101FA000022319438183704721B1028842F08002E5
:101FB000028004E002884FF67F731A400280704767
:101FC00021B1828842F00402828004E082884FF6C8
:101FD000FB731A408280704721B1828842F0080268
:101FE000828004E082884FF6F7731A40828070473F
:101FF00021B1828842F00102828004E082884FF69B
:10200000FE731A40828070470A460021018B4FF60A
:10201000F77319401143018370470A460021018B71
:102020004FF2FF7319404FF6FF7303EA022319437F
:10203000018370470A460021818B4FF6F7731940E0
:102040001143818370470A460021818B4FF2FF7351
:1020500019404FF6FF7303EA022319438183704747
:102060000A460021018B4FF6FB731940114301838F
:1020700070470A460021018B4FF6FF3319404FF697
:10208000FF7303EA02231943018370470A460021C4
:10209000818B4FF6FB7319401143818370470A46C9
:1020A0000021818B4FF6FF3319404FF6FF7303EA8F
:1020B00002231943818370470A460021018B4FF6A2
:1020C0007F7319401143018370470A460021018B39
:1020D000C1F30E014FF6FF7303EA02231943018394
:1020E00070470A460021818B4FF67F7319401143D8
:1020F000818370470A460021818BC1F30E014FF6A0
:10210000FF7303EA02231943818370470A460021C3
:10211000018C4FF6FD7319401143018470470A4644
:102120000021018C4FF6F773194011430184704769
:102130000A460021018C4FF6DF7319404FF6FF73FA
:1021400003EA02131943018470470A460021018CF7
:102150004FF67F7319404FF6FF7303EA02131943DA
:10216000018470470A460021018C4FF6FF53194045
:102170004FF6FF7303EA02231943018470470A46AE
:102180000021018C4FF2FF7319404FF6FF7303EAF1
:1021900002231943018470470A460021018C4DF641
:1021A000FF7319404FF6FF7303EA023319430184AA
:1021B000704730B5002301248C40A3B2048C9C43AB
:1021C0000484048C02FA01F5ADB22C43048430BDC2
:1021D00030B5002304248C40A3B2048C9C430484B7
:1021E000048C02FA01F5ADB22C43048430BD70B505
:1021F0000346002000241846183001258D40ACB25B
:102200001D8CA5431D8409B1082909D100EB61008B
:10221000056825F0700505600568154305600EE04A
:102220000D1FC5F34E052844056825F4E0450560FB
:1022300005684FF6FF7606EA02263543056070BD55
:1022400021B1028842F00202028004E002884FF6C7
:10225000FD731A400280704721B1028842F00402E7
:10226000028004E002884FF6FB731A400280704738
:1022700021B1828842F08002828004E082884FF699
:102280007F731A408280704702884FF6F7731A40B6
:10229000028002880A430280704782884FF68F735B
:1022A0001A40828082880A438280704702894FF6F2
:1022B000F8731A40028102890A4302817047028939
:1022C0004FF67F731A40028102890A4302817047E8
:1022D0008184704781857047818670470187704788
:1022E00081877047A0F84010704702884FF6FF437F
:1022F0001A40028002880A43028070470146888E95
:1023000070470146088F70470146888F7047014625
:10231000B1F8400070470146888C70470146088D2F
:10232000704702460020138A0B400BB1012000E0E9
:1023300000207047CA430282704730B50246002031
:1023400000230024158A05EA0103958905EA0104A2
:1023500013B10CB1012000E0002030BDCA4302825D
:10236000704700000E49086070470D49486070478B
:102370000B49886070474AF6AA20094908607047EF
:102380004CF6CC4006490860704701460020044ADC
:10239000D2680A400AB1012000E000207047000026
:1023A00000300040002044490860091D0860091DF4
:1023B0000860091D086041483F49143108607047B2
:1023C00000213D498279002A3AD00A461268036802
:1023D0009A430B461A600A1D126803689A430B1D44
:1023E0001A60027911440A6803681A430A60324A83
:1023F0000832126803689A432F4B08331A601A1D7B
:10240000126803689A432C4B0C331A604279102AE5
:102410000ED11A1F126803681A43274B08331A603B
:102420001A1D126803681A43234B0C331A600DE01F
:102430002149427911440A6803681A430A6005E099
:10244000027911440A6803689A430A6070470021C0
:10245000016001710C2141710021817170471649A1
:10246000103109680143144A103211607047014667
:102470000020114A143212680A400AB1012000E01B
:10248000002070470C491431086070470146002055
:102490000022094B1B6803EA0102074B14331B6837
:1024A0000B4013B10AB1012000E00020704702493F
:1024B000143108607047000000040140FFFF0F0066
:1024C0000948804709480047FEE7FEE7FEE7FEE7C8
:1024D000FEE7FEE7FEE7FEE7FEE7FEE70448054904
:1024E000054A064B70470000A7020008ED000008EF
:1024F000B0070020B00D0020B0090020B009002076
:1025000070B50546022D04D0042D14D0062D6ED1D1
:102510004CE00620F94908700120F94908700024B0
:1025200006E00020F7490855F7490855601CC4B279
:102530001E2CF6DB5BE0002406E00020F149085584
:10254000F1490855601CC4B21E2CF6DBEF48007838
:1025500028B1042001F0ADF901F056F804E00420A0
:1025600001F0D1F801F050F80020E9490870E9497C
:102570000870E9490870E9490880E04908700221BB
:10258000E748FEF78EF80A2000F096FB0221E448A7
:10259000FEF785F840F2DC5000F07FFB0221E048B6
:1025A000FEF77FF80A2000F087FB20E00020D849E2
:1025B0000870D8490870D8490870D8490880D049AF
:1025C00008700620CD4908700221D548FEF769F849
:1025D0000A2000F071FB002406E00020C9490855DC
:1025E000C9490855601CC4B21E2CF6DB00BF00BFF1
:1025F00070BD10B50446C548007800286CD0022C88
:1026000002D0062C67D133E0C648007818B101210A
:10261000022001F011FABE48007838B1BE480078B7
:10262000022803D10221084601F006FAB8480078D2
:1026300038B1B9480078042803D10321022001F001
:10264000FBF9B348007838B1B3480078072803D1C4
:102650000421022001F0F0F9AD48007838B1AE480D
:102660000078092803D10521022001F0E5F932E0C4
:10267000AC48007818B10121062001F0DDF9A4482A
:10268000007838B1A4480078022803D1022106203E
:1026900001F0D2F99E48007838B19F4800780428AC
:1026A00003D10321062001F0C7F99948007830B121
:1026B00099480078062802D1042101F0BDF9944818
:1026C000007838B194480078082803D10521062005
:1026D00001F0B2F900BF56E0022C02D0062C51D115
:1026E00028E09048007818B10121022001F0A3FBF6
:1026F0008748007838B188480078022803D1022141
:10270000084601F098FB8248007838B1824800788A
:10271000052803D10321022001F08DFB7C480078BD
:1027200038B17D480078072803D10421022001F048
:1027300082FB27E07B48007818B10121062001F0D8
:102740007AFB7348007838B173480078022803D1C7
:102750000221062001F06FFB6D48007838B16E4809
:102760000078042803D10321062001F064FB6848A7
:10277000007830B168480078062802D1042101F0C1
:102780005AFB00BF00BF10BD10B501216648FDF720
:102790006CFF6649087008460078E8B9644800781C
:1027A00058B10020634908706149087006205349F8
:1027B00008700120524908700EE000205D49087041
:1027C0005B490870002405E05B48005D5B490855E3
:1027D000601CC4B2122CF7DB56480078C8B14FF425
:1027E000FA7000F05AFA01214F48FDF73EFF4F49B9
:1027F000087008460078012808D100204D4908706B
:1028000001204B4908704E49087002E000204949F8
:10281000087010BD642000F040FA00F060FA01F08A
:10282000A7FD4FF4967000F038FA00F052FA4FF41A
:10283000165000F0E2FA4FF4165000F0D8FA4FF4B8
:10284000165000F04EFB4FF4165000F07BFAB32107
:10285000632000F0BDFD01F0B5FD01F005FD4FF472
:10286000FA61042001F0EAFC002404E0022000F0F8
:1028700023FA601CC4B20A2CF8DB3248007828B175
:10288000002030490870012020490870002406E02B
:1028900000201C4908551C490855601CC4B21E2C58
:1028A000F6DB1A48007858B112222349264800F076
:1028B000B6FE0021082001F0BFF800F0A5FE0AE0F6
:1028C00012221D49204800F0AAFE0021082001F034
:1028D000B2FA00F099FE47E001F0C2FC1B48007814
:1028E00001283FD1002019490870062003490870CB
:1028F000012003490870002431E000002800002076
:102900002E000020880600208805002030000020CE
:10291000EA010020EB010020EE010020F20100207E
:10292000000C01409C000020000801402B0000200A
:10293000290000202F000020FC0100201A020020A6
:102940002D000020350000202C020020F90100207D
:1029500000204B4908554B490855601CC4B21E2C39
:10296000F6DB02E001F040FDB6E700BF87E001F0D2
:1029700077FCFFF709FF4448007838B1002042494E
:10298000087012224149424800F049FE414800784F
:1029900028B341480078012816D100203E4908702C
:1029A0003C490870002406E00020354908553549A7
:1029B0000855601CC4B21E2CF6DB0620374908708F
:1029C0000120374908700AE03648007828B1002015
:1029D000344908700420FFF793FD01F005FD2F48EE
:1029E000007898B32B48007880BB0620FFF701FEE3
:1029F00029480078012820D100202749087027485D
:102A00000078401E2549087002212748FDF749FE3D
:102A10000A2000F051F92148007868BB01202349C1
:102A20000870002406E0002015490855154908558E
:102A3000601CC4B21E2C22DAF5E71948007810B1E8
:102A40000620FFF75DFD01F0CFFC18E0FFE7174817
:102A5000007888B10F48007870B90220FFF7C9FDEF
:102A60000D480078012808D100200B4908700F4953
:102A700008700220FFF744FD01E001F0B5FC76E7A5
:102A8000880600208805002034000020FC0100207A
:102A90002C02002029000020F9010020280000203D
:102AA0002E0000202D000020000C01402A000020F4
:102AB000704700BFFEE700BFFEE700BFFEE700BFB4
:102AC000FEE7704770477047704700005F4909781C
:102AD00049B9062803D101215C4A117054E0002154
:102AE0005A4A117050E059490978012909D1022840
:102AF00003D10221554A117046E00021534A11705A
:102B000042E052490978022909D1032803D103215F
:102B10004E4A117038E000214C4A117034E04B49A4
:102B20000978032901D1012100E00021474A1278E8
:102B3000042A01D1012200E000221143B1B144492D
:102B40000A780978491C424B197042498854194641
:102B50000978122906D100211A46117005213B4A35
:102B6000117011E00421394A11700DE037490978DC
:102B7000052906D10021354A11700121364A11700C
:102B800002E00021314A117070473449097849B98F
:102B9000062803D10121314A117056E000212F4A45
:102BA000117052E02D490978012909D1312803D14A
:102BB00002212A4A117048E00021284A117044E09D
:102BC00026490978022901D1012100E00021234A88
:102BD0001278032A01D1012200E000221143B1B191
:102BE0001F490A780978491C1D4B19701D498854E2
:102BF000194609780C2906D100211A4611700421C2
:102C0000164A117021E00321144A11701DE0134986
:102C10000978042909D1062803D105210F4A11702A
:102C200013E000210D4A11700FE00C4909780529C5
:102C30000BD1042806D10021084A117001210A4A4B
:102C4000117002E00021054A117070473C0000201D
:102C50003D000020FC010020340000203E00002048
:102C60003F0000200E0200203500002000EBC001D4
:102C7000C9004FF0E02251610021916105211161ED
:102C800000BF4FF0E021096901F480310029F8D03C
:102C900004214FF0E0221161704710B5044601F0A5
:102CA000DFFA03E04FF47A70FFF7E0FF2000A4F1B1
:102CB00001018CB2F6D110BD10B5044603E04FF40B
:102CC0007A70FFF7EAFF2000A4F101018CB2F6D17F
:102CD00010BD10B54FF4A060FDF766FB10BD10B538
:102CE000FDF77EFD4FF48030FDF79AFDFDF7D7FD2F
:102CF0000446012C24D14FF4E0110004FDF7F8FD47
:102D00000020FDF712FEA002FDF718FE0020FDF7DF
:102D10001EFE0220FEF73AF91020FEF74BF90120C3
:102D2000FDF7F2FD00BF3920FDF79DFD0028FAD028
:102D30000220FDF7ECFD00BFFDF7F2FD0828FBD1F6
:102D400010BD000010B586B0044601210820FDF733
:102D5000B5FE01218804FDF7BEFE4FF40060ADF81A
:102D6000140004208DF8170005A9FE48FDF7EAFBC2
:102D70004FF48060ADF8140003208DF81600182081
:102D80008DF8170005A9F748FDF7DCFB019400203A
:102D9000ADF80800ADF80A00ADF80C00ADF8100071
:102DA0000C20ADF80E0001A9EF48FDF72EFF01221F
:102DB00040F22551EC48FDF7C0FF002240F2277198
:102DC000E948FDF7BAFF0121E748FDF7AAFF2720F0
:102DD0008DF8000002208DF801008DF8020001201E
:102DE0008DF803006846FDF7E4FA06B010BD10B593
:102DF00004462046FFF7A6FF10BD10B586B0044676
:102E0000012144F20400FDF759FE4FF40070ADF8C3
:102E1000140003208DF8160018208DF8170005A95E
:102E2000D248FDF78FFB4FF48060ADF8140004200A
:102E30008DF8170005A9CD48FDF784FB25208DF8F6
:102E4000000002208DF801008DF8020001208DF8AD
:102E500003006846FDF7ADFA01940020ADF80800C4
:102E6000ADF80A00ADF80C00ADF810000C20ADF87C
:102E70000E0001A9BE48FDF7C8FE012240F225510F
:102E8000BB48FDF75AFF0121B948FDF74AFF06B0DC
:102E900010BD10B504462046FFF7AFFF10BD10B5BA
:102EA00040F22551B248FEF72DF8A0B1B048FDF729
:102EB000A9FFB049087008460078552803D10121C0
:102EC000A848FDF7ECFBAB480078AA2803D1012104
:102ED000A448FDF7E6FB40F22551A548FEF73CF873
:102EE00010BD10B586B0044601210420FDF7E6FDB3
:102EF00001214804FDF7EFFD0820ADF8140004207F
:102F00008DF8170005A99948FDF71CFB0420ADF8C2
:102F1000140003208DF8160018208DF8170005A95D
:102F20009248FDF70FFB01940020ADF80800ADF8C2
:102F30000A00ADF80C00ADF810000C20ADF80E0042
:102F400001A98D48FDF761FE012240F225518A4812
:102F5000FDF7F3FE01218848FDF7E3FE26208DF8FA
:102F6000000002208DF801008DF8020001208DF88C
:102F700003006846FDF71DFA06B010BD10B540F21B
:102F800025517D48FDF7BEFF40B17B48FDF73AFF74
:102F90007A49087008460078FFF798FD10BD10B513
:102FA00040F225517048FDF7ADFF40B16E48FDF786
:102FB00029FF7349087008460078FFF7E6FD40F2E4
:102FC00025516948FDF7C8FF10BD10B500246D48B4
:102FD000007800F04000D0B16B480078401C6A498E
:102FE00008700846007869490978884207DA684815
:102FF000654A1278815C5C48FDF700FF08E0614893
:10300000007840F080005F490870012400E001244E
:103010002CB1002240F226615348FDF78EFE10BD10
:1030200000215C4A11805C4A11805C49097801F0FA
:10303000400141B94021594A117059490870012194
:10304000584A117013E0574909783C2909DA544964
:10305000544A1278885453490978491C514A1170CE
:1030600005E04E49097841F020014C4A1170704743
:1030700070B5054608212846FDF72EFF012806D128
:1030800008212846FDF735FF2846FDF7BBFE40F234
:1030900025512846FDF736FF012806D12846FDF7C1
:1030A000B1FEC4B22046FFF7BBFF40F227712846AD
:1030B000FDF728FF01280AD140F227712846FDF7C5
:1030C0004BFF002240F227712846FDF736FE40F202
:1030D00026612846FDF716FF012801D1FFF775FF8D
:1030E00070BD01B500202D49097801F0400161B1A2
:1030F00028490988BDF80020914206DB2749097854
:1031000041F08001254A1170012008BD0A460021C6
:10311000818921F00C0111438181704710B504466B
:103120001848007800F04000D8B908210E48FFF791
:10313000EDFF002240F225510B48FDF7FEFD0A4845
:10314000FDF760FE124801780748FDF757FE402062
:103150000C49087000200C4908700C4804700122CA
:1031600022E026E0000C0140004800400008014039
:103170000038014064000020004400406500002049
:10318000660000205500002053000020520000205F
:103190007A0400204E00002050000020540000203F
:1031A0003E0400204C00002040F226617548FDF7E7
:1031B000C4FD10BD10B57448007800F0400068B33D
:1031C00072480078401C71490870084600787049C0
:1031D0000978884207DA6F486C4A1278815C6E4839
:1031E000FDF70CFE20E06848007840F0800066495A
:1031F0000870002240F226616748FDF79EFD40F20C
:1032000025516548FDF7A8FE6348FDF7FBFD012247
:1032100040F225516048FDF790FD05E0002240F2A4
:1032200026615D48FDF789FD10BD5C4909685C4A6F
:1032300011605C49097801F0400159B95949097890
:1032400041F04001574A1170574908700121574A0F
:10325000117013E055490978FF2909DC5249534A96
:103260001278885451490978491C504A117005E078
:103270004C49097841F020014A4A1170704770B5F5
:10328000054608212846FDF727FE012806D108211A
:103290002846FDF72EFE2846FDF7B4FD40F22551E5
:1032A0002846FDF72FFE01280BD140F22551284674
:1032B000FDF752FE2846FDF7A5FDC4B22046FFF7F4
:1032C000B4FF40F227712846FDF71CFE01280AD101
:1032D00040F227712846FDF73FFE002240F2277199
:1032E0002846FDF72AFD40F226612846FDF70AFE32
:1032F000012806D140F226612846FDF72DFEFFF792
:1033000059FF70BD01B500202649097801F0C001C0
:10331000402912D121490968214A1268891A009A64
:1033200091420AD31F49097841F080011D4A11706A
:103330001A4909681A4A1160012008BD10B50446EF
:103340001148007800F04000D8B9002240F2255121
:103350001148FDF7F2FC1048FDF754FD00200B4921
:1033600008700B480470402007490870094801782C
:103370000948FDF743FD012240F226610648FDF7AA
:10338000DCFC10BD004800404B000020490000203C
:10339000480000203E020020003801406800002064
:1033A000440000204A0000203E030020400000208E
:1033B00008B51D208DF8000002208DF801008DF861
:1033C000020001208DF803006846FCF7F2FF08BDFB
:1033D0003EB505460C4601210220FDF77CFBFFF7B8
:1033E000E7FFADF80450ADF800400020ADF8020052
:1033F000ADF8060069461648FEF77AF90122114633
:103400001348FEF7ECFC01211148FEF7CDFC3EBD50
:1034100010B501210E48FEF790FFC0B101210C4804
:10342000FEF79CFF0B480068401C0A4908600A48E8
:10343000008820B108480088401E074908800748D6
:10344000006820B105480068401E0449086010BDAE
:1034500000040040680000207000002038000020B8
:10346000FE490978FF2907DAFC490A780978491CDE
:10347000FA4B1970FA4988547047F0B50546FF2495
:10348000FF23F748007840F0C000F54E307030461A
:10349000437803F1CB007070022229E0F048845C8D
:1034A000E01A81B201F4004050B9EE4830F8111032
:1034B00008464E1CB1B2EC4E305C00F01F0310E029
:1034C000C843C0B21130E74E36F810100E464F1CFC
:1034D000B9B2E54FB85DC61700EB1676361106F1A6
:1034E000300303F1C000DE4EB0542346501C82B2BC
:1034F000AA42D3DD43EA0420F0BDF0B50546FF241F
:10350000FF23D748007840F0C000D84E3070D44830
:10351000437803F1CB007070022229E0D048845C2C
:10352000E01A81B201F4004050B9CE4830F81110D1
:1035300008464E1CB1B2CC4E305C00F01F0310E0C8
:10354000C843C0B21130C74E36F810100E464F1C9B
:10355000B9B2C54FB85DC61700EB1676361106F145
:10356000300303F1C000C14EB0542346501C82B258
:10357000AA42D3DD43EA0420F0BD70B5064602211D
:10358000BB48FDF78EF84FF47A70FFF786FB0024F6
:1035900011E00221B648FDF782F840F2DC50FFF757
:1035A0007CFB0221B248FDF77CF840F2DC50FFF7CB
:1035B00074FB601C84B2032CEBDB002421E0A848E0
:1035C000055D05F0400038B105F03F0140F2EE2204
:1035D00001FB02F0FFF761FB05F0800078B10221EA
:1035E000A348FDF75CF840F2DC50FFF756FB0221E0
:1035F0009F48FDF756F840F2DC50FFF74EFB601C89
:1036000084B2B442DBDB70BD002005E09449095C64
:10361000964A1154411CC8B21E28F7DB704710B5FA
:103620000346002003E00C5C1C54441CE0B29042B2
:10363000F9DB10BD00228F4B1A608F4B1A808F4B25
:103640001A808F4B1A808F4B1A808F4B1A808F4BAA
:103650001A808F4B1A608F4B1A608F4B1A600A7852
:10366000C2EB02634A7803EB02438A7803EB02223F
:10367000CB781A44884B1A600A79C2EB02634A7904
:1036800003EB02438A7903EB0222CB791A44794B8C
:103690001A601A46126842F210735A437E4B1B6836
:1036A000B2FBF3F2734B1A604378027803EB022209
:1036B000724B1A80C378827803EB0222704B1A8017
:1036C0004379027903EB0222714B1A60C379827944
:1036D00003EB02226C4B1A80437A027A03EB02223C
:1036E0006C4B1A601A461288634B1A80C37A827A2E
:1036F00003EB0222634B1A80437B027B03EB022223
:10370000624B1A807047F0B507460024634964484D
:10371000FFF790FF5E480068322807D30120614917
:103720000870564800886049088008E000205D491C
:1037300008705348008800F561605B4908802046A6
:10374000611CCCB246490F545148006800034FF445
:10375000E161B0FBF1F606F00F022046611CCCB22D
:103760003F490A54C6F303122046611CCCB23C49BF
:103770000A54C6F303222046611CCCB238490A54CD
:103780004448006800034FF46161B0FBF1F606F0B5
:103790000F022046611CCCB231490A54C6F3031211
:1037A0002046611CCCB22E490A54C6F3032220469F
:1037B000611CCCB22A490A5432480088000247F200
:1037C000305190FBF1F085B205F00F022046611CEC
:1037D000CCB223490A54C5F303122046611CCCB273
:1037E0001F490A5428480088000247F2305190FBD4
:1037F000F1F085B205F00F022046611CCCB21849E9
:103800000A54C5F303122046611CCCB214490A5471
:103810001E48008844F25061884202DB08461B497A
:1038200008801A480088000244F2506190FBF1F0D1
:1038300085B205F00F022046611CCCB208490A543B
:10384000C5F303122046611CCCB205490A54611E1F
:1038500088B2FFF712FE0021014A27E07500002020
:10386000880500209A4600089A470008880600202C
:10387000000C0140940000207A0000207600002017
:10388000780000207E0000208000002082000020C0
:10389000880000208C000020900000200E020020F4
:1038A0001A0200209800002084000020601C11549F
:1038B000F0BDF0B507460024FD49FE48FFF7BAFE0B
:1038C000FD480068322807D30120FC490870FC48F5
:1038D0000088FC49088008E00020F8490870FA4890
:1038E000008800F56160F74908802046611CCCB271
:1038F000F6490F54F6480068000240F26D11B0FB23
:10390000F1F085B205F00F022046611CCCB2EF4900
:103910000A54C5F303122046611CCCB2EB490A5489
:10392000E548006800034FF4E161B0FBF1F606F0F2
:103930000F022046611CCCB2E4490A54C6F30312BC
:103940002046611CCCB2E1490A54C6F3032220464A
:10395000611CCCB2DD490A54DE48006800034FF414
:103960006161B0FBF1F606F00F022046611CCCB29B
:10397000D6490A54C6F303122046611CCCB2D3497F
:103980000A54C6F303222046611CCCB2CF490A5424
:10399000D1480088000247F2305190FBF1F085B227
:1039A00005F00F022046611CCCB2C8490A54C5F389
:1039B00003122046611CCCB2C4490A54C74800888F
:1039C000000247F2305190FBF1F085B205F00F0292
:1039D0002046611CCCB2BD490A54C5F303122046EF
:1039E000611CCCB2B9490A54BD48008844F2506108
:1039F000884202DB0846BA490880B94800880002BC
:103A000044F2506190FBF1F085B205F00F022046C0
:103A1000611CCCB2AD490A54C5F303122046611CA7
:103A2000CCB2AA490A54611E88B2FFF726FD0021D4
:103A3000A64A601C1154F0BD2DE9F04180460F46A6
:103A400000259B49A748FFF7F5FDB8F1080F15D1F0
:103A500099480068322807D301209849087098488F
:103A600000889849088017E000209449087096481B
:103A7000008800F56160934908800DE08F48007868
:103A800020B18F4800888F49088005E08E48008863
:103A900000F561608B4908800025B8F1020F06D05F
:103AA000B8F1060F74D0B8F1080F6FD1DEE0062F21
:103AB0006BD2DFE807F06A03192C415402208349D6
:103AC000087083480068000240F26D11B0FBF1F00D
:103AD00084B204F00F007D494870C4F3031088706D
:103AE0000320FFF70AFD50E07648008800024FF4FB
:103AF000E15190FBF1F084B204F00F007349C870FB
:103B0000C4F3031008710520FFF7F7FC3DE06A4895
:103B1000006800034FF4E161B0FBF1F606F00F001E
:103B20006A494871C6F303108871C6F30320C8714F
:103B30000820FFF7E2FC28E06248008800024FF40A
:103B4000E15190FBF1F084B204F00F005F4908727C
:103B5000C4F3031048720A20FFF7CFFC15E0624857
:103B6000008800024FF4616190FBF1F084B204F030
:103B70000F0056498872C4F30310C8720B20FFF778
:103B8000BCFC00205149087300BF00BF50E1FFE7B3
:103B9000062F69D2DFE807F06803192C3F52062090
:103BA0004A4908704A480068000240F26D11B0FBB3
:103BB000F1F084B204F00F0044494870C4F30310DC
:103BC00088700320FFF799FC4EE03E480088000211
:103BD0004FF4E15190FBF1F084B204F00F003B4947
:103BE000C870C4F3031008710520FFF786FC3BE0A2
:103BF0003448008800024FF4E15190FBF1F084B2A8
:103C000004F00F0031494871C4F303108871072094
:103C1000FFF773FC28E02B48008800024FF4E151C5
:103C200090FBF1F084B204F00F002849C871C4F38E
:103C3000031008720920FFF760FC15E02148008896
:103C400000024FF4E15190FBF1F084B204F00F0058
:103C50001E494872C4F3031088720A20FFF74DFC16
:103C600000201A49C87200BF00BFE1E008222846C0
:103C7000691CCDB215490A5415480068000240F28B
:103C80006D11B0FBF1F084B204F00F022846691CFC
:103C9000CDB20E490A54C4F303122846691CCDB2B2
:103CA0000A490A540448006800034FF4E1611DE02A
:103CB0000E0200201A020020880000209800002038
:103CC0007600002084000020780000208805002075
:103CD000940000208C0000207E0000208000002046
:103CE000820000202C0200207A000020B0FBF1F6B8
:103CF00006F00F022846691CCDB2FE490A54C6F3ED
:103D000003122846691CCDB2FA490A54C6F30322AD
:103D10002846691CCDB2F7490A54F74800680003E9
:103D20004FF46161B0FBF1F606F00F022846691C02
:103D3000CDB2F0490A54C6F303122846691CCDB22D
:103D4000EC490A54C6F303222846691CCDB2E9495E
:103D50000A54EA480088000247F2305190FBF1F023
:103D600084B204F00F022846691CCDB2E1490A541E
:103D7000C4F303122846691CCDB2DE490A54E04858
:103D80000088000247F2305190FBF1F084B204F059
:103D90000F022846691CCDB2D6490A54C4F3031257
:103DA0002846691CCDB2D3490A54D648008800027F
:103DB0004FF4E15190FBF1F084B204F00F02284679
:103DC000691CCDB2CB490A54C4F303122846691CBE
:103DD000CDB2C8490A54CC48008844F250618842A8
:103DE00002DB0846C8490880C7480088000244F240
:103DF000506190FBF1F084B204F00F022846691C78
:103E0000CDB2BC490A54C4F303122846691CCDB292
:103E1000B8490A5400204855691E88B2FFF72DFBA7
:103E20004F20B44948550021B24A681C115400BFC4
:103E300000BFBDE8F0812DE9F04107468846002526
:103E4000B249B348FFF7F6FB082F15D1B148006817
:103E5000322807D30120B0490870B0480088A9492A
:103E6000088017E00020AC490870AD48008800F5D4
:103E70006160A44908800DE0A748007820B1A748F8
:103E80000088A049088005E0A548008800F5616029
:103E90009C490880022F04D0062F65D0082F62D1DC
:103EA000C3E0B8F1010F09D0B8F1020F1CD0B8F18E
:103EB000030F2ED0B8F1040F54D13DE002208D49FC
:103EC00008709048008800024FF4E15190FBF1F037
:103ED00084B204F00F0087494870C4F3031088705F
:103EE0000320FFF70AFB3DE08A48006800034FF417
:103EF000E161B0FBF1F606F00F007E49C870C6F331
:103F000003100871C6F3032048710620FFF7F5FA85
:103F100028E07C48008800024FF4E15190FBF1F06A
:103F200084B204F00F0073498871C4F30310C871A0
:103F30000820FFF7E2FA15E07A48008800024FF403
:103F4000616190FBF1F084B204F00F0069490872DE
:103F5000C4F3031048720920FFF7CFFA0020654927
:103F6000887200BF00BF29E1B8F1010F09D0B8F194
:103F7000020F1CD0B8F1030F2CD0B8F1040F52D1AE
:103F80003BE006205B4908705E48008800024FF461
:103F9000E15190FBF1F084B204F00F0055494870F4
:103FA000C4F3031088700320FFF7A7FA3BE05548DD
:103FB000008800024FF4E15190FBF1F084B204F06C
:103FC0000F004C49C870C4F3031008710520FFF7B7
:103FD00094FA28E04B48008800024FF4E15190FB2E
:103FE000F1F084B204F00F0042494871C4F30310A9
:103FF00088710720FFF781FA15E042480088000227
:104000004FF4E15190FBF1F084B204F00F00394914
:10401000C871C4F3031008720820FFF76EFA00207D
:104020003449487200BF00BFC8E008222846691C16
:10403000CDB230490A543748006800034FF4E161BB
:10404000B0FBF1F606F00F022846691CCDB22949F3
:104050000A54C6F303122846691CCDB225490A54F6
:10406000C6F303222846691CCDB222490A542248CD
:10407000006800034FF46161B0FBF1F606F00F0237
:104080002846691CCDB21B490A54C6F303122846C0
:10409000691CCDB217490A54C6F303222846691C8D
:1040A000CDB214490A5415480088000247F2305135
:1040B00090FBF1F084B204F00F022846691CCDB2E7
:1040C0000C490A54C4F303122846691CCDB20949AD
:1040D0000A540B480088000247F2305190FBF1F07F
:1040E00084B204F00F022846691CCDB201490A547B
:1040F0001AE00000880500208C0000207E000020CF
:104100008000002084000020820000200E02002099
:104110002C0200208800002098000020760000205B
:10412000780000207A000020C4F303122846691C9E
:10413000CDB239490A543948008800024FF4E151A0
:1041400090FBF1F084B204F00F022846691CCDB256
:1041500031490A54C4F303122846691CCDB22E49D2
:104160000A542F48008844F25061884202DB084616
:104170002B4908802A480088000244F2506190FBD5
:10418000F1F084B204F00F022846691CCDB2224936
:104190000A54C4F303122846691CCDB21E490A54BE
:1041A00000204855691E88B2FFF767F94F201A4969
:1041B00048550021184A681C115400BF00BFBDE8D3
:1041C000F08110B51748007800F0800010B1002091
:1041D000144908700A20FFF795F8E0B111480078FB
:1041E000C8B9002010490870002409E00F48005D9C
:1041F0000F4908550D48005D0E490855601CC4B2B2
:104200000D4800788442F1DB0020064908700A4816
:104210000078FFF793F810BD880500208400002087
:10422000820000204B0000204A0000203E030020B6
:104230003E020020A00000204000002070B505468E
:104240000C4645F25550FEF78DF82846FEF78DF8DE
:104250002046FEF78DF8FEF78EF8FEF791F870BD58
:1042600010B5FEF788F810BD0EB501210846FCF721
:1042700025FC00F0A7F805210220FCF779FA2020A0
:10428000019000208DF808000C208DF80900012015
:104290008DF80A0001A8FEF793F80F210020FCF723
:1042A00067FA4FF40040019000208DF808000C20C0
:1042B0008DF8090001208DF80A0001A8FEF780F8AA
:1042C00000210846FCF754FA0120019000208DF8E7
:1042D000080008208DF8090001208DF80A0001A8C7
:1042E000FEF76EF806208DF8000002208DF8010020
:1042F0008DF8020001208DF803006846FCF759F89C
:1043000017208DF8000002208DF8010001208DF8A3
:1043100002008DF803006846FCF74BF828208DF862
:10432000000001208DF8010000208DF8020001201E
:104330008DF803006846FCF73CF80EBD10B501206F
:104340000A490870FEF7B3F810BD10B50A20FEF751
:10435000A4FC2020FEF7ABF810BD10B50A20FEF734
:104360009CFC4FF40040FEF7A2F810BD2F00002087
:1043700008B501210C20FCF7A1FB0120ADF80000DD
:1043800010208DF8030003208DF8020069460C48C8
:10439000FCF7D8F80220ADF8000010208DF80300DB
:1043A00003208DF8020069460548FCF7CBF801218F
:1043B0000348FCF776F902210148FCF772F908BDC1
:1043C000000C014008B501210420FCF777FB032015
:1043D000ADF8000028208DF8030069460148FCF77D
:1043E000B1F808BD0008014010B5814800880028D8
:1043F0007ED17D207E4908807E480078002851D1FA
:1044000060207D4908807D4800880988884207DB54
:104410007B480078401C7A49087000207749088062
:104420007748007803280DDA74480088302804DAC9
:1044300002217448FCF733F930E002217148FCF79F
:1044400030F92BE001206B49087000206C4908709E
:104450006A490880684908806B4869490978405C66
:1044600000F0400050B1684865490978405C00F0B0
:104470001F0000EB4000C0005F4908805E480088D4
:104480006249088060485E490978405C00F080001D
:1044900020B15948008860305749088001205C49A4
:1044A000087085E0534800780128FAD10020584967
:1044B00008705248008850490988884258DB5048A3
:1044C0000078401C4E49087000204C4908804E4836
:1044D0004B490978405C70B901204E4908700020B2
:1044E000444908704C49087045490870434900E048
:1044F00063E008803CE000203F4908804248404992
:104500000978405C00F0400030B33F483C490978EE
:10451000405C00F01F0038490880084600883B498D
:104520000880394836490978405C00F0200028B1FD
:1045300031480088C0F120002F4908802E480088AB
:1045400000EB40004FF6FF7101EAC0002F490880E0
:1045500008460088284908802B4829490978405C8A
:1045600000F0800020B12448008860302249088093
:1045700028480078E0B9244821490978405C00F0D7
:104580008000A8B11D4800882049098888420BDBBB
:104590001A4801881D4800883030814204DA02211F
:1045A0001848FCF77CF803E002211648FCF779F87C
:1045B00012480088401C1149088010BD10B51748EA
:1045C000007858B11648007840B916480078FEF7D0
:1045D000A5FD0020134908701049087010480078A4
:1045E00000F0800010B100200D49087010BD0000DF
:1045F00070000020EA010020F4010020F2010020F8
:10460000EE010020000C014088060020F601002089
:104610009C000020F9010020EB010020F80100209F
:10462000550000209B00002070477047704775467A
:1046300000F028F8AE4605006946534620F0070012
:10464000854618B020B5FDF749FFBDE820404FF082
:1046500000064FF000074FF000084FF0000B21F06C
:104660000701AC46ACE8C009ACE8C009ACE8C00939
:10467000ACE8C0098D4670470446AFF30080204681
:10468000FBF79BFD004870475007002001491820A8
:10469000ABBEFEE726000200704701004300380071
:1046A000450071004C004800750061005C00580036
:1046B000240051002D0068000D00520028007800F1
:1046C0008F00E800D7009900B100E000C100890028
:1046D000A200F30037007C004C00A00060006100E5
:1046E000A1006300A300A20062006600B600A7005C
:1046F0006700A5006500640044006C00AC00AD00DC
:104700006D00AF006F006E00AE00AA007A006B0073
:10471000AB006900A900A80068007800B800C900D3
:104720007900BB007B007A00BA00BE007E007F00EB
:10473000BF007D00BD00BC007C00B400840075009B
:10474000B5007700B700B60076007200B200B30083
:104750007300B10071007000B0005000A000910023
:1047600051009300530052009200960056005700EB
:10477000970055009500940054009C005C005D007B
:104780009D005F009F009E006E005A009A009B00F3
:104790005B00990059005800980000CFC101C30385
:1047A00002C2C60607C705BEC404CC0C0DCD0FCF90
:1047B000CE0E0ACACB0BC90908C8D81819D91ADBFA
:1047C000DA1A2EDEDF1FDD7C1CDC14D4D515D717DA
:1047D00016E6D11213D311D1D010F03031F033F2EC
:1047E000F23235F6F737743534F43CFBFD3DFF3FCC
:1047F0003EFEF93A3BFB38F9F83828F7E929EB2B6C
:104800002AEA5D2E2FEF2DEDEC2CE43325E527D69B
:10481000E62632E2E323F12120E0A06061A163A358
:10482000A26266B6A767A56564446CACAD6DAF6F58
:104830006EAEAA7A6BAB69A9A86878B8C979BB7B58
:104840007ABABE7E7FBF7DBDBC7CB48475B577B7B8
:10485000B67672B2B373B17170B050A091519353E8
:10486000529296565797559594549C5C5D9D5F9FC8
:104870009E6E5A9A9B5B99595898984849894B8BD8
:104880008A4A5E8E8F4F8D4D4C8C448485D58747E8
:10489000468682424383418180400000BC48000834
:1048A00000000020FC010000280100081049000859
:1048B000FC010020B40B0000840100081184A24A0E
:1048C00004680901020304060708090C69104D0277
:1048D00004060821014012010A2BC82E2163037D22
:1048E0002D153F412102000AE133412111354121BB
:1048F0001A70080A222F5D7888909497989901A6DB
:1049000088785D2211E57FFFFF1003120D0A000079
:04000005080000ED02
:00000001FF
